{
	"contracts/FundMe.sol": {
		"FundMe": {
			"abi": [
				{
					"inputs": [],
					"stateMutability": "nonpayable",
					"type": "constructor"
				},
				{
					"inputs": [
						{
							"internalType": "address",
							"name": "",
							"type": "address"
						}
					],
					"name": "addressToAmountFunded",
					"outputs": [
						{
							"internalType": "uint256",
							"name": "",
							"type": "uint256"
						}
					],
					"stateMutability": "view",
					"type": "function"
				},
				{
					"inputs": [],
					"name": "fund",
					"outputs": [],
					"stateMutability": "payable",
					"type": "function"
				},
				{
					"inputs": [],
					"name": "fundV2",
					"outputs": [],
					"stateMutability": "payable",
					"type": "function"
				},
				{
					"inputs": [
						{
							"internalType": "uint256",
							"name": "",
							"type": "uint256"
						}
					],
					"name": "funders",
					"outputs": [
						{
							"internalType": "address",
							"name": "",
							"type": "address"
						}
					],
					"stateMutability": "view",
					"type": "function"
				},
				{
					"inputs": [
						{
							"internalType": "uint256",
							"name": "ethAmount",
							"type": "uint256"
						}
					],
					"name": "getConversionRate",
					"outputs": [
						{
							"internalType": "uint256",
							"name": "",
							"type": "uint256"
						}
					],
					"stateMutability": "view",
					"type": "function"
				},
				{
					"inputs": [],
					"name": "getPrice",
					"outputs": [
						{
							"internalType": "uint256",
							"name": "",
							"type": "uint256"
						}
					],
					"stateMutability": "view",
					"type": "function"
				},
				{
					"inputs": [],
					"name": "getVersion",
					"outputs": [
						{
							"internalType": "uint256",
							"name": "",
							"type": "uint256"
						}
					],
					"stateMutability": "view",
					"type": "function"
				},
				{
					"inputs": [],
					"name": "owner",
					"outputs": [
						{
							"internalType": "address",
							"name": "",
							"type": "address"
						}
					],
					"stateMutability": "view",
					"type": "function"
				},
				{
					"inputs": [],
					"name": "withdraw",
					"outputs": [],
					"stateMutability": "payable",
					"type": "function"
				}
			],
			"devdoc": {
				"kind": "dev",
				"methods": {},
				"version": 1
			},
			"evm": {
				"assembly": "    /* \"contracts/FundMe.sol\":219:2724  contract FundMe{... */\n  mstore(0x40, 0x80)\n    /* \"contracts/FundMe.sol\":272:333  constructor()  {... */\n  callvalue\n  dup1\n  iszero\n  tag_1\n  jumpi\n  0x00\n  dup1\n  revert\ntag_1:\n  pop\n    /* \"contracts/FundMe.sol\":314:324  msg.sender */\n  caller\n    /* \"contracts/FundMe.sol\":298:303  owner */\n  0x00\n  dup1\n    /* \"contracts/FundMe.sol\":298:325  owner = payable(msg.sender) */\n  0x0100\n  exp\n  dup2\n  sload\n  dup2\n  0xffffffffffffffffffffffffffffffffffffffff\n  mul\n  not\n  and\n  swap1\n  dup4\n  0xffffffffffffffffffffffffffffffffffffffff\n  and\n  mul\n  or\n  swap1\n  sstore\n  pop\n    /* \"contracts/FundMe.sol\":219:2724  contract FundMe{... */\n  dataSize(sub_0)\n  dup1\n  dataOffset(sub_0)\n  0x00\n  codecopy\n  0x00\n  return\nstop\n\nsub_0: assembly {\n        /* \"contracts/FundMe.sol\":219:2724  contract FundMe{... */\n      mstore(0x40, 0x80)\n      jumpi(tag_1, lt(calldatasize, 0x04))\n      shr(0xe0, calldataload(0x00))\n      dup1\n      0x8da5cb5b\n      gt\n      tag_11\n      jumpi\n      dup1\n      0x8da5cb5b\n      eq\n      tag_6\n      jumpi\n      dup1\n      0x98d5fdca\n      eq\n      tag_7\n      jumpi\n      dup1\n      0xb60d4288\n      eq\n      tag_8\n      jumpi\n      dup1\n      0xdc0d3dff\n      eq\n      tag_9\n      jumpi\n      dup1\n      0xf5b27d2b\n      eq\n      tag_10\n      jumpi\n      jump(tag_1)\n    tag_11:\n      dup1\n      0x0d8e6e2c\n      eq\n      tag_2\n      jumpi\n      dup1\n      0x3ccfd60b\n      eq\n      tag_3\n      jumpi\n      dup1\n      0x3e47d6f3\n      eq\n      tag_4\n      jumpi\n      dup1\n      0x6e5b6b28\n      eq\n      tag_5\n      jumpi\n    tag_1:\n      0x00\n      dup1\n      revert\n        /* \"contracts/FundMe.sol\":928:1135  function getVersion() public view returns (uint256) {... */\n    tag_2:\n      callvalue\n      dup1\n      iszero\n      tag_12\n      jumpi\n      0x00\n      dup1\n      revert\n    tag_12:\n      pop\n      tag_13\n      tag_14\n      jump\t// in\n    tag_13:\n      mload(0x40)\n      tag_15\n      swap2\n      swap1\n      tag_16\n      jump\t// in\n    tag_15:\n      mload(0x40)\n      dup1\n      swap2\n      sub\n      swap1\n      return\n        /* \"contracts/FundMe.sol\":1792:2125  function withdraw() payable onlyOwner public {... */\n    tag_3:\n      tag_17\n      tag_18\n      jump\t// in\n    tag_17:\n      stop\n        /* \"contracts/FundMe.sol\":345:401  mapping(address => uint256) public addressToAmountFunded */\n    tag_4:\n      callvalue\n      dup1\n      iszero\n      tag_19\n      jumpi\n      0x00\n      dup1\n      revert\n    tag_19:\n      pop\n      tag_20\n      0x04\n      dup1\n      calldatasize\n      sub\n      dup2\n      add\n      swap1\n      tag_21\n      swap2\n      swap1\n      tag_22\n      jump\t// in\n    tag_21:\n      tag_23\n      jump\t// in\n    tag_20:\n      mload(0x40)\n      tag_24\n      swap2\n      swap1\n      tag_16\n      jump\t// in\n    tag_24:\n      mload(0x40)\n      dup1\n      swap2\n      sub\n      swap1\n      return\n        /* \"contracts/FundMe.sol\":1432:1666  function getConversionRate(uint256 ethAmount) public view returns(uint256){... */\n    tag_5:\n      callvalue\n      dup1\n      iszero\n      tag_25\n      jumpi\n      0x00\n      dup1\n      revert\n    tag_25:\n      pop\n      tag_26\n      0x04\n      dup1\n      calldatasize\n      sub\n      dup2\n      add\n      swap1\n      tag_27\n      swap2\n      swap1\n      tag_28\n      jump\t// in\n    tag_27:\n      tag_29\n      jump\t// in\n    tag_26:\n      mload(0x40)\n      tag_30\n      swap2\n      swap1\n      tag_16\n      jump\t// in\n    tag_30:\n      mload(0x40)\n      dup1\n      swap2\n      sub\n      swap1\n      return\n        /* \"contracts/FundMe.sol\":243:263  address public owner */\n    tag_6:\n      callvalue\n      dup1\n      iszero\n      tag_31\n      jumpi\n      0x00\n      dup1\n      revert\n    tag_31:\n      pop\n      tag_32\n      tag_33\n      jump\t// in\n    tag_32:\n      mload(0x40)\n      tag_34\n      swap2\n      swap1\n      tag_35\n      jump\t// in\n    tag_34:\n      mload(0x40)\n      dup1\n      swap2\n      sub\n      swap1\n      return\n        /* \"contracts/FundMe.sol\":1143:1424  function getPrice() public view returns (uint256){... */\n    tag_7:\n      callvalue\n      dup1\n      iszero\n      tag_36\n      jumpi\n      0x00\n      dup1\n      revert\n    tag_36:\n      pop\n      tag_37\n      tag_38\n      jump\t// in\n    tag_37:\n      mload(0x40)\n      tag_39\n      swap2\n      swap1\n      tag_16\n      jump\t// in\n    tag_39:\n      mload(0x40)\n      dup1\n      swap2\n      sub\n      swap1\n      return\n        /* \"contracts/FundMe.sol\":441:698  function fund() public payable {... */\n    tag_8:\n      tag_40\n      tag_41\n      jump\t// in\n    tag_40:\n      stop\n        /* \"contracts/FundMe.sol\":408:432  address[] public funders */\n    tag_9:\n      callvalue\n      dup1\n      iszero\n      tag_42\n      jumpi\n      0x00\n      dup1\n      revert\n    tag_42:\n      pop\n      tag_43\n      0x04\n      dup1\n      calldatasize\n      sub\n      dup2\n      add\n      swap1\n      tag_44\n      swap2\n      swap1\n      tag_28\n      jump\t// in\n    tag_44:\n      tag_45\n      jump\t// in\n    tag_43:\n      mload(0x40)\n      tag_46\n      swap2\n      swap1\n      tag_35\n      jump\t// in\n    tag_46:\n      mload(0x40)\n      dup1\n      swap2\n      sub\n      swap1\n      return\n        /* \"contracts/FundMe.sol\":710:920  function fundV2() public payable {... */\n    tag_10:\n      tag_47\n      tag_48\n      jump\t// in\n    tag_47:\n      stop\n        /* \"contracts/FundMe.sol\":928:1135  function getVersion() public view returns (uint256) {... */\n    tag_14:\n        /* \"contracts/FundMe.sol\":971:978  uint256 */\n      0x00\n        /* \"contracts/FundMe.sol\":991:1022  AggregatorV3Interface priceFeed */\n      dup1\n        /* \"contracts/FundMe.sol\":1047:1089  0x694AA1769357215DE4FAC081bf1f309aDC325306 */\n      0x694aa1769357215de4fac081bf1f309adc325306\n        /* \"contracts/FundMe.sol\":991:1090  AggregatorV3Interface priceFeed = AggregatorV3Interface(0x694AA1769357215DE4FAC081bf1f309aDC325306) */\n      swap1\n      pop\n        /* \"contracts/FundMe.sol\":1108:1117  priceFeed */\n      dup1\n        /* \"contracts/FundMe.sol\":1108:1125  priceFeed.version */\n      0xffffffffffffffffffffffffffffffffffffffff\n      and\n      0x54fd4d50\n        /* \"contracts/FundMe.sol\":1108:1127  priceFeed.version() */\n      mload(0x40)\n      dup2\n      0xffffffff\n      and\n      0xe0\n      shl\n      dup2\n      mstore\n      0x04\n      add\n      0x20\n      mload(0x40)\n      dup1\n      dup4\n      sub\n      dup2\n      dup7\n      gas\n      staticcall\n      iszero\n      dup1\n      iszero\n      tag_51\n      jumpi\n      returndatasize\n      0x00\n      dup1\n      returndatacopy\n      revert(0x00, returndatasize)\n    tag_51:\n      pop\n      pop\n      pop\n      pop\n      mload(0x40)\n      returndatasize\n      not(0x1f)\n      0x1f\n      dup3\n      add\n      and\n      dup3\n      add\n      dup1\n      0x40\n      mstore\n      pop\n      dup2\n      add\n      swap1\n      tag_52\n      swap2\n      swap1\n      tag_53\n      jump\t// in\n    tag_52:\n        /* \"contracts/FundMe.sol\":1101:1127  return priceFeed.version() */\n      swap2\n      pop\n      pop\n        /* \"contracts/FundMe.sol\":928:1135  function getVersion() public view returns (uint256) {... */\n      swap1\n      jump\t// out\n        /* \"contracts/FundMe.sol\":1792:2125  function withdraw() payable onlyOwner public {... */\n    tag_18:\n        /* \"contracts/FundMe.sol\":1727:1732  owner */\n      0x00\n      dup1\n      sload\n      swap1\n      0x0100\n      exp\n      swap1\n      div\n      0xffffffffffffffffffffffffffffffffffffffff\n      and\n        /* \"contracts/FundMe.sol\":1713:1732  msg.sender == owner */\n      0xffffffffffffffffffffffffffffffffffffffff\n      and\n        /* \"contracts/FundMe.sol\":1713:1723  msg.sender */\n      caller\n        /* \"contracts/FundMe.sol\":1713:1732  msg.sender == owner */\n      0xffffffffffffffffffffffffffffffffffffffff\n      and\n      eq\n        /* \"contracts/FundMe.sol\":1704:1758  require (msg.sender == owner, \"you are not the owner\") */\n      tag_55\n      jumpi\n      mload(0x40)\n      0x08c379a000000000000000000000000000000000000000000000000000000000\n      dup2\n      mstore\n      0x04\n      add\n      tag_56\n      swap1\n      tag_57\n      jump\t// in\n    tag_56:\n      mload(0x40)\n      dup1\n      swap2\n      sub\n      swap1\n      revert\n    tag_55:\n        /* \"contracts/FundMe.sol\":1856:1866  msg.sender */\n      caller\n        /* \"contracts/FundMe.sol\":1848:1876  payable(msg.sender).transfer */\n      0xffffffffffffffffffffffffffffffffffffffff\n      and\n        /* \"contracts/FundMe.sol\":1848:1899  payable(msg.sender).transfer(address(this).balance) */\n      0x08fc\n        /* \"contracts/FundMe.sol\":1877:1898  address(this).balance */\n      selfbalance\n        /* \"contracts/FundMe.sol\":1848:1899  payable(msg.sender).transfer(address(this).balance) */\n      swap1\n      dup2\n      iszero\n      mul\n      swap1\n      mload(0x40)\n      0x00\n      mload(0x40)\n      dup1\n      dup4\n      sub\n      dup2\n      dup6\n      dup9\n      dup9\n      call\n      swap4\n      pop\n      pop\n      pop\n      pop\n      iszero\n      dup1\n      iszero\n      tag_60\n      jumpi\n      returndatasize\n      0x00\n      dup1\n      returndatacopy\n      revert(0x00, returndatasize)\n    tag_60:\n      pop\n        /* \"contracts/FundMe.sol\":1914:1927  uint256 index */\n      0x00\n        /* \"contracts/FundMe.sol\":1910:2071  for(uint256 index = 0; index < funders.length;index++){... */\n    tag_61:\n        /* \"contracts/FundMe.sol\":1941:1948  funders */\n      0x02\n        /* \"contracts/FundMe.sol\":1941:1955  funders.length */\n      dup1\n      sload\n      swap1\n      pop\n        /* \"contracts/FundMe.sol\":1933:1938  index */\n      dup2\n        /* \"contracts/FundMe.sol\":1933:1955  index < funders.length */\n      lt\n        /* \"contracts/FundMe.sol\":1910:2071  for(uint256 index = 0; index < funders.length;index++){... */\n      iszero\n      tag_62\n      jumpi\n        /* \"contracts/FundMe.sol\":1979:1993  address funder */\n      0x00\n        /* \"contracts/FundMe.sol\":1996:2003  funders */\n      0x02\n        /* \"contracts/FundMe.sol\":2004:2009  index */\n      dup3\n        /* \"contracts/FundMe.sol\":1996:2010  funders[index] */\n      dup2\n      sload\n      dup2\n      lt\n      tag_64\n      jumpi\n      tag_65\n      tag_66\n      jump\t// in\n    tag_65:\n    tag_64:\n      swap1\n      0x00\n      mstore\n      keccak256(0x00, 0x20)\n      add\n      0x00\n      swap1\n      sload\n      swap1\n      0x0100\n      exp\n      swap1\n      div\n      0xffffffffffffffffffffffffffffffffffffffff\n      and\n        /* \"contracts/FundMe.sol\":1979:2010  address funder = funders[index] */\n      swap1\n      pop\n        /* \"contracts/FundMe.sol\":2056:2057  0 */\n      0x00\n        /* \"contracts/FundMe.sol\":2024:2045  addressToAmountFunded */\n      0x01\n        /* \"contracts/FundMe.sol\":2024:2053  addressToAmountFunded[funder] */\n      0x00\n        /* \"contracts/FundMe.sol\":2046:2052  funder */\n      dup4\n        /* \"contracts/FundMe.sol\":2024:2053  addressToAmountFunded[funder] */\n      0xffffffffffffffffffffffffffffffffffffffff\n      and\n      0xffffffffffffffffffffffffffffffffffffffff\n      and\n      dup2\n      mstore\n      0x20\n      add\n      swap1\n      dup2\n      mstore\n      0x20\n      add\n      0x00\n      keccak256\n        /* \"contracts/FundMe.sol\":2024:2057  addressToAmountFunded[funder] = 0 */\n      dup2\n      swap1\n      sstore\n      pop\n        /* \"contracts/FundMe.sol\":1964:2071  {... */\n      pop\n        /* \"contracts/FundMe.sol\":1956:1963  index++ */\n      dup1\n      dup1\n      0x01\n      add\n      swap2\n      pop\n      pop\n        /* \"contracts/FundMe.sol\":1910:2071  for(uint256 index = 0; index < funders.length;index++){... */\n      jump(tag_61)\n    tag_62:\n      pop\n        /* \"contracts/FundMe.sol\":2105:2106  0 */\n      0x00\n        /* \"contracts/FundMe.sol\":2091:2107  new address[](0) */\n      0xffffffffffffffff\n      dup2\n      gt\n      iszero\n      tag_68\n      jumpi\n      tag_69\n      tag_70\n      jump\t// in\n    tag_69:\n    tag_68:\n      mload(0x40)\n      swap1\n      dup1\n      dup3\n      mstore\n      dup1\n      0x20\n      mul\n      0x20\n      add\n      dup3\n      add\n      0x40\n      mstore\n      dup1\n      iszero\n      tag_71\n      jumpi\n      dup2\n      0x20\n      add\n      0x20\n      dup3\n      mul\n      dup1\n      calldatasize\n      dup4\n      calldatacopy\n      dup1\n      dup3\n      add\n      swap2\n      pop\n      pop\n      swap1\n      pop\n    tag_71:\n      pop\n        /* \"contracts/FundMe.sol\":2081:2088  funders */\n      0x02\n        /* \"contracts/FundMe.sol\":2081:2107  funders = new address[](0) */\n      swap1\n      dup1\n      mload\n      swap1\n      0x20\n      add\n      swap1\n      tag_72\n      swap3\n      swap2\n      swap1\n      tag_73\n      jump\t// in\n    tag_72:\n      pop\n        /* \"contracts/FundMe.sol\":1792:2125  function withdraw() payable onlyOwner public {... */\n      jump\t// out\n        /* \"contracts/FundMe.sol\":345:401  mapping(address => uint256) public addressToAmountFunded */\n    tag_23:\n      mstore(0x20, 0x01)\n      dup1\n      0x00\n      mstore\n      keccak256(0x00, 0x40)\n      0x00\n      swap2\n      pop\n      swap1\n      pop\n      sload\n      dup2\n      jump\t// out\n        /* \"contracts/FundMe.sol\":1432:1666  function getConversionRate(uint256 ethAmount) public view returns(uint256){... */\n    tag_29:\n        /* \"contracts/FundMe.sol\":1498:1505  uint256 */\n      0x00\n        /* \"contracts/FundMe.sol\":1517:1533  uint256 ethPrice */\n      dup1\n        /* \"contracts/FundMe.sol\":1536:1546  getPrice() */\n      tag_75\n        /* \"contracts/FundMe.sol\":1536:1544  getPrice */\n      tag_38\n        /* \"contracts/FundMe.sol\":1536:1546  getPrice() */\n      jump\t// in\n    tag_75:\n        /* \"contracts/FundMe.sol\":1517:1546  uint256 ethPrice = getPrice() */\n      swap1\n      pop\n        /* \"contracts/FundMe.sol\":1557:1579  uint256 ethAmountInUsd */\n      0x00\n        /* \"contracts/FundMe.sol\":1607:1626  1000000000000000000 */\n      0x0de0b6b3a7640000\n        /* \"contracts/FundMe.sol\":1594:1603  ethAmount */\n      dup5\n        /* \"contracts/FundMe.sol\":1583:1591  ethPrice */\n      dup4\n        /* \"contracts/FundMe.sol\":1583:1603  ethPrice * ethAmount */\n      tag_76\n      swap2\n      swap1\n      tag_77\n      jump\t// in\n    tag_76:\n        /* \"contracts/FundMe.sol\":1582:1626  (ethPrice * ethAmount) / 1000000000000000000 */\n      tag_78\n      swap2\n      swap1\n      tag_79\n      jump\t// in\n    tag_78:\n        /* \"contracts/FundMe.sol\":1557:1626  uint256 ethAmountInUsd = (ethPrice * ethAmount) / 1000000000000000000 */\n      swap1\n      pop\n        /* \"contracts/FundMe.sol\":1644:1658  ethAmountInUsd */\n      dup1\n        /* \"contracts/FundMe.sol\":1637:1658  return ethAmountInUsd */\n      swap3\n      pop\n      pop\n      pop\n        /* \"contracts/FundMe.sol\":1432:1666  function getConversionRate(uint256 ethAmount) public view returns(uint256){... */\n      swap2\n      swap1\n      pop\n      jump\t// out\n        /* \"contracts/FundMe.sol\":243:263  address public owner */\n    tag_33:\n      0x00\n      dup1\n      sload\n      swap1\n      0x0100\n      exp\n      swap1\n      div\n      0xffffffffffffffffffffffffffffffffffffffff\n      and\n      dup2\n      jump\t// out\n        /* \"contracts/FundMe.sol\":1143:1424  function getPrice() public view returns (uint256){... */\n    tag_38:\n        /* \"contracts/FundMe.sol\":1184:1191  uint256 */\n      0x00\n        /* \"contracts/FundMe.sol\":1203:1234  AggregatorV3Interface priceFeed */\n      dup1\n        /* \"contracts/FundMe.sol\":1259:1301  0x694AA1769357215DE4FAC081bf1f309aDC325306 */\n      0x694aa1769357215de4fac081bf1f309adc325306\n        /* \"contracts/FundMe.sol\":1203:1302  AggregatorV3Interface priceFeed = AggregatorV3Interface(0x694AA1769357215DE4FAC081bf1f309aDC325306) */\n      swap1\n      pop\n        /* \"contracts/FundMe.sol\":1316:1329  int256 answer */\n      0x00\n        /* \"contracts/FundMe.sol\":1346:1355  priceFeed */\n      dup2\n        /* \"contracts/FundMe.sol\":1346:1371  priceFeed.latestRoundData */\n      0xffffffffffffffffffffffffffffffffffffffff\n      and\n      0xfeaf968c\n        /* \"contracts/FundMe.sol\":1346:1373  priceFeed.latestRoundData() */\n      mload(0x40)\n      dup2\n      0xffffffff\n      and\n      0xe0\n      shl\n      dup2\n      mstore\n      0x04\n      add\n      0xa0\n      mload(0x40)\n      dup1\n      dup4\n      sub\n      dup2\n      dup7\n      gas\n      staticcall\n      iszero\n      dup1\n      iszero\n      tag_82\n      jumpi\n      returndatasize\n      0x00\n      dup1\n      returndatacopy\n      revert(0x00, returndatasize)\n    tag_82:\n      pop\n      pop\n      pop\n      pop\n      mload(0x40)\n      returndatasize\n      not(0x1f)\n      0x1f\n      dup3\n      add\n      and\n      dup3\n      add\n      dup1\n      0x40\n      mstore\n      pop\n      dup2\n      add\n      swap1\n      tag_83\n      swap2\n      swap1\n      tag_84\n      jump\t// in\n    tag_83:\n        /* \"contracts/FundMe.sol\":1313:1373  (, int256 answer,,,) ... */\n      pop\n      pop\n      pop\n      swap2\n      pop\n      pop\n        /* \"contracts/FundMe.sol\":1409:1415  answer */\n      dup1\n        /* \"contracts/FundMe.sol\":1394:1416  return uint256(answer) */\n      swap3\n      pop\n      pop\n      pop\n        /* \"contracts/FundMe.sol\":1143:1424  function getPrice() public view returns (uint256){... */\n      swap1\n      jump\t// out\n        /* \"contracts/FundMe.sol\":441:698  function fund() public payable {... */\n    tag_41:\n        /* \"contracts/FundMe.sol\":646:655  msg.value */\n      callvalue\n        /* \"contracts/FundMe.sol\":609:630  addressToAmountFunded */\n      0x01\n        /* \"contracts/FundMe.sol\":609:642  addressToAmountFunded[msg.sender] */\n      0x00\n        /* \"contracts/FundMe.sol\":631:641  msg.sender */\n      caller\n        /* \"contracts/FundMe.sol\":609:642  addressToAmountFunded[msg.sender] */\n      0xffffffffffffffffffffffffffffffffffffffff\n      and\n      0xffffffffffffffffffffffffffffffffffffffff\n      and\n      dup2\n      mstore\n      0x20\n      add\n      swap1\n      dup2\n      mstore\n      0x20\n      add\n      0x00\n      keccak256\n      0x00\n        /* \"contracts/FundMe.sol\":609:655  addressToAmountFunded[msg.sender] += msg.value */\n      dup3\n      dup3\n      sload\n      tag_86\n      swap2\n      swap1\n      tag_87\n      jump\t// in\n    tag_86:\n      swap3\n      pop\n      pop\n      dup2\n      swap1\n      sstore\n      pop\n        /* \"contracts/FundMe.sol\":666:673  funders */\n      0x02\n        /* \"contracts/FundMe.sol\":679:689  msg.sender */\n      caller\n        /* \"contracts/FundMe.sol\":666:690  funders.push(msg.sender) */\n      swap1\n      dup1\n      0x01\n      dup2\n      sload\n      add\n      dup1\n      dup3\n      sstore\n      dup1\n      swap2\n      pop\n      pop\n      0x01\n      swap1\n      sub\n      swap1\n      0x00\n      mstore\n      keccak256(0x00, 0x20)\n      add\n      0x00\n      swap1\n      swap2\n      swap1\n      swap2\n      swap1\n      swap2\n      0x0100\n      exp\n      dup2\n      sload\n      dup2\n      0xffffffffffffffffffffffffffffffffffffffff\n      mul\n      not\n      and\n      swap1\n      dup4\n      0xffffffffffffffffffffffffffffffffffffffff\n      and\n      mul\n      or\n      swap1\n      sstore\n      pop\n        /* \"contracts/FundMe.sol\":441:698  function fund() public payable {... */\n      jump\t// out\n        /* \"contracts/FundMe.sol\":408:432  address[] public funders */\n    tag_45:\n      0x02\n      dup2\n      dup2\n      sload\n      dup2\n      lt\n      tag_89\n      jumpi\n      0x00\n      dup1\n      revert\n    tag_89:\n      swap1\n      0x00\n      mstore\n      keccak256(0x00, 0x20)\n      add\n      0x00\n      swap2\n      pop\n      sload\n      swap1\n      0x0100\n      exp\n      swap1\n      div\n      0xffffffffffffffffffffffffffffffffffffffff\n      and\n      dup2\n      jump\t// out\n        /* \"contracts/FundMe.sol\":710:920  function fundV2() public payable {... */\n    tag_48:\n        /* \"contracts/FundMe.sol\":793:803  getPrice() */\n      tag_92\n        /* \"contracts/FundMe.sol\":793:801  getPrice */\n      tag_38\n        /* \"contracts/FundMe.sol\":793:803  getPrice() */\n      jump\t// in\n    tag_92:\n        /* \"contracts/FundMe.sol\":762:790  getConversionRate(msg.value) */\n      tag_93\n        /* \"contracts/FundMe.sol\":780:789  msg.value */\n      callvalue\n        /* \"contracts/FundMe.sol\":762:779  getConversionRate */\n      tag_29\n        /* \"contracts/FundMe.sol\":762:790  getConversionRate(msg.value) */\n      jump\t// in\n    tag_93:\n        /* \"contracts/FundMe.sol\":762:803  getConversionRate(msg.value)>= getPrice() */\n      lt\n      iszero\n        /* \"contracts/FundMe.sol\":754:820  require(getConversionRate(msg.value)>= getPrice(), \"revert error\") */\n      tag_94\n      jumpi\n      mload(0x40)\n      0x08c379a000000000000000000000000000000000000000000000000000000000\n      dup2\n      mstore\n      0x04\n      add\n      tag_95\n      swap1\n      tag_96\n      jump\t// in\n    tag_95:\n      mload(0x40)\n      dup1\n      swap2\n      sub\n      swap1\n      revert\n    tag_94:\n        /* \"contracts/FundMe.sol\":868:877  msg.value */\n      callvalue\n        /* \"contracts/FundMe.sol\":831:852  addressToAmountFunded */\n      0x01\n        /* \"contracts/FundMe.sol\":831:864  addressToAmountFunded[msg.sender] */\n      0x00\n        /* \"contracts/FundMe.sol\":853:863  msg.sender */\n      caller\n        /* \"contracts/FundMe.sol\":831:864  addressToAmountFunded[msg.sender] */\n      0xffffffffffffffffffffffffffffffffffffffff\n      and\n      0xffffffffffffffffffffffffffffffffffffffff\n      and\n      dup2\n      mstore\n      0x20\n      add\n      swap1\n      dup2\n      mstore\n      0x20\n      add\n      0x00\n      keccak256\n      0x00\n        /* \"contracts/FundMe.sol\":831:877  addressToAmountFunded[msg.sender] += msg.value */\n      dup3\n      dup3\n      sload\n      tag_97\n      swap2\n      swap1\n      tag_87\n      jump\t// in\n    tag_97:\n      swap3\n      pop\n      pop\n      dup2\n      swap1\n      sstore\n      pop\n        /* \"contracts/FundMe.sol\":888:895  funders */\n      0x02\n        /* \"contracts/FundMe.sol\":901:911  msg.sender */\n      caller\n        /* \"contracts/FundMe.sol\":888:912  funders.push(msg.sender) */\n      swap1\n      dup1\n      0x01\n      dup2\n      sload\n      add\n      dup1\n      dup3\n      sstore\n      dup1\n      swap2\n      pop\n      pop\n      0x01\n      swap1\n      sub\n      swap1\n      0x00\n      mstore\n      keccak256(0x00, 0x20)\n      add\n      0x00\n      swap1\n      swap2\n      swap1\n      swap2\n      swap1\n      swap2\n      0x0100\n      exp\n      dup2\n      sload\n      dup2\n      0xffffffffffffffffffffffffffffffffffffffff\n      mul\n      not\n      and\n      swap1\n      dup4\n      0xffffffffffffffffffffffffffffffffffffffff\n      and\n      mul\n      or\n      swap1\n      sstore\n      pop\n        /* \"contracts/FundMe.sol\":710:920  function fundV2() public payable {... */\n      jump\t// out\n    tag_73:\n      dup3\n      dup1\n      sload\n      dup3\n      dup3\n      sstore\n      swap1\n      0x00\n      mstore\n      keccak256(0x00, 0x20)\n      swap1\n      dup2\n      add\n      swap3\n      dup3\n      iszero\n      tag_99\n      jumpi\n      swap2\n      0x20\n      mul\n      dup3\n      add\n    tag_100:\n      dup3\n      dup2\n      gt\n      iszero\n      tag_101\n      jumpi\n      dup3\n      mload\n      dup3\n      exp(0x0100, 0x00)\n      dup2\n      sload\n      dup2\n      0xffffffffffffffffffffffffffffffffffffffff\n      mul\n      not\n      and\n      swap1\n      dup4\n      0xffffffffffffffffffffffffffffffffffffffff\n      and\n      mul\n      or\n      swap1\n      sstore\n      pop\n      swap2\n      0x20\n      add\n      swap2\n      swap1\n      0x01\n      add\n      swap1\n      jump(tag_100)\n    tag_101:\n    tag_99:\n      pop\n      swap1\n      pop\n      tag_102\n      swap2\n      swap1\n      tag_103\n      jump\t// in\n    tag_102:\n      pop\n      swap1\n      jump\t// out\n    tag_103:\n    tag_104:\n      dup1\n      dup3\n      gt\n      iszero\n      tag_105\n      jumpi\n      0x00\n      dup2\n      0x00\n      swap1\n      sstore\n      pop\n      0x01\n      add\n      jump(tag_104)\n    tag_105:\n      pop\n      swap1\n      jump\t// out\n        /* \"#utility.yul\":7:84   */\n    tag_106:\n        /* \"#utility.yul\":44:51   */\n      0x00\n        /* \"#utility.yul\":73:78   */\n      dup2\n        /* \"#utility.yul\":62:78   */\n      swap1\n      pop\n        /* \"#utility.yul\":7:84   */\n      swap2\n      swap1\n      pop\n      jump\t// out\n        /* \"#utility.yul\":90:208   */\n    tag_107:\n        /* \"#utility.yul\":177:201   */\n      tag_135\n        /* \"#utility.yul\":195:200   */\n      dup2\n        /* \"#utility.yul\":177:201   */\n      tag_106\n      jump\t// in\n    tag_135:\n        /* \"#utility.yul\":172:175   */\n      dup3\n        /* \"#utility.yul\":165:202   */\n      mstore\n        /* \"#utility.yul\":90:208   */\n      pop\n      pop\n      jump\t// out\n        /* \"#utility.yul\":214:436   */\n    tag_16:\n        /* \"#utility.yul\":307:311   */\n      0x00\n        /* \"#utility.yul\":345:347   */\n      0x20\n        /* \"#utility.yul\":334:343   */\n      dup3\n        /* \"#utility.yul\":330:348   */\n      add\n        /* \"#utility.yul\":322:348   */\n      swap1\n      pop\n        /* \"#utility.yul\":358:429   */\n      tag_137\n        /* \"#utility.yul\":426:427   */\n      0x00\n        /* \"#utility.yul\":415:424   */\n      dup4\n        /* \"#utility.yul\":411:428   */\n      add\n        /* \"#utility.yul\":402:408   */\n      dup5\n        /* \"#utility.yul\":358:429   */\n      tag_107\n      jump\t// in\n    tag_137:\n        /* \"#utility.yul\":214:436   */\n      swap3\n      swap2\n      pop\n      pop\n      jump\t// out\n        /* \"#utility.yul\":523:640   */\n    tag_109:\n        /* \"#utility.yul\":632:633   */\n      0x00\n        /* \"#utility.yul\":629:630   */\n      dup1\n        /* \"#utility.yul\":622:634   */\n      revert\n        /* \"#utility.yul\":769:895   */\n    tag_111:\n        /* \"#utility.yul\":806:813   */\n      0x00\n        /* \"#utility.yul\":846:888   */\n      0xffffffffffffffffffffffffffffffffffffffff\n        /* \"#utility.yul\":839:844   */\n      dup3\n        /* \"#utility.yul\":835:889   */\n      and\n        /* \"#utility.yul\":824:889   */\n      swap1\n      pop\n        /* \"#utility.yul\":769:895   */\n      swap2\n      swap1\n      pop\n      jump\t// out\n        /* \"#utility.yul\":901:997   */\n    tag_112:\n        /* \"#utility.yul\":938:945   */\n      0x00\n        /* \"#utility.yul\":967:991   */\n      tag_143\n        /* \"#utility.yul\":985:990   */\n      dup3\n        /* \"#utility.yul\":967:991   */\n      tag_111\n      jump\t// in\n    tag_143:\n        /* \"#utility.yul\":956:991   */\n      swap1\n      pop\n        /* \"#utility.yul\":901:997   */\n      swap2\n      swap1\n      pop\n      jump\t// out\n        /* \"#utility.yul\":1003:1125   */\n    tag_113:\n        /* \"#utility.yul\":1076:1100   */\n      tag_145\n        /* \"#utility.yul\":1094:1099   */\n      dup2\n        /* \"#utility.yul\":1076:1100   */\n      tag_112\n      jump\t// in\n    tag_145:\n        /* \"#utility.yul\":1069:1074   */\n      dup2\n        /* \"#utility.yul\":1066:1101   */\n      eq\n        /* \"#utility.yul\":1056:1119   */\n      tag_146\n      jumpi\n        /* \"#utility.yul\":1115:1116   */\n      0x00\n        /* \"#utility.yul\":1112:1113   */\n      dup1\n        /* \"#utility.yul\":1105:1117   */\n      revert\n        /* \"#utility.yul\":1056:1119   */\n    tag_146:\n        /* \"#utility.yul\":1003:1125   */\n      pop\n      jump\t// out\n        /* \"#utility.yul\":1131:1270   */\n    tag_114:\n        /* \"#utility.yul\":1177:1182   */\n      0x00\n        /* \"#utility.yul\":1215:1221   */\n      dup2\n        /* \"#utility.yul\":1202:1222   */\n      calldataload\n        /* \"#utility.yul\":1193:1222   */\n      swap1\n      pop\n        /* \"#utility.yul\":1231:1264   */\n      tag_148\n        /* \"#utility.yul\":1258:1263   */\n      dup2\n        /* \"#utility.yul\":1231:1264   */\n      tag_113\n      jump\t// in\n    tag_148:\n        /* \"#utility.yul\":1131:1270   */\n      swap3\n      swap2\n      pop\n      pop\n      jump\t// out\n        /* \"#utility.yul\":1276:1605   */\n    tag_22:\n        /* \"#utility.yul\":1335:1341   */\n      0x00\n        /* \"#utility.yul\":1384:1386   */\n      0x20\n        /* \"#utility.yul\":1372:1381   */\n      dup3\n        /* \"#utility.yul\":1363:1370   */\n      dup5\n        /* \"#utility.yul\":1359:1382   */\n      sub\n        /* \"#utility.yul\":1355:1387   */\n      slt\n        /* \"#utility.yul\":1352:1471   */\n      iszero\n      tag_150\n      jumpi\n        /* \"#utility.yul\":1390:1469   */\n      tag_151\n      tag_109\n      jump\t// in\n    tag_151:\n        /* \"#utility.yul\":1352:1471   */\n    tag_150:\n        /* \"#utility.yul\":1510:1511   */\n      0x00\n        /* \"#utility.yul\":1535:1588   */\n      tag_152\n        /* \"#utility.yul\":1580:1587   */\n      dup5\n        /* \"#utility.yul\":1571:1577   */\n      dup3\n        /* \"#utility.yul\":1560:1569   */\n      dup6\n        /* \"#utility.yul\":1556:1578   */\n      add\n        /* \"#utility.yul\":1535:1588   */\n      tag_114\n      jump\t// in\n    tag_152:\n        /* \"#utility.yul\":1525:1588   */\n      swap2\n      pop\n        /* \"#utility.yul\":1481:1598   */\n      pop\n        /* \"#utility.yul\":1276:1605   */\n      swap3\n      swap2\n      pop\n      pop\n      jump\t// out\n        /* \"#utility.yul\":1611:1733   */\n    tag_115:\n        /* \"#utility.yul\":1684:1708   */\n      tag_154\n        /* \"#utility.yul\":1702:1707   */\n      dup2\n        /* \"#utility.yul\":1684:1708   */\n      tag_106\n      jump\t// in\n    tag_154:\n        /* \"#utility.yul\":1677:1682   */\n      dup2\n        /* \"#utility.yul\":1674:1709   */\n      eq\n        /* \"#utility.yul\":1664:1727   */\n      tag_155\n      jumpi\n        /* \"#utility.yul\":1723:1724   */\n      0x00\n        /* \"#utility.yul\":1720:1721   */\n      dup1\n        /* \"#utility.yul\":1713:1725   */\n      revert\n        /* \"#utility.yul\":1664:1727   */\n    tag_155:\n        /* \"#utility.yul\":1611:1733   */\n      pop\n      jump\t// out\n        /* \"#utility.yul\":1739:1878   */\n    tag_116:\n        /* \"#utility.yul\":1785:1790   */\n      0x00\n        /* \"#utility.yul\":1823:1829   */\n      dup2\n        /* \"#utility.yul\":1810:1830   */\n      calldataload\n        /* \"#utility.yul\":1801:1830   */\n      swap1\n      pop\n        /* \"#utility.yul\":1839:1872   */\n      tag_157\n        /* \"#utility.yul\":1866:1871   */\n      dup2\n        /* \"#utility.yul\":1839:1872   */\n      tag_115\n      jump\t// in\n    tag_157:\n        /* \"#utility.yul\":1739:1878   */\n      swap3\n      swap2\n      pop\n      pop\n      jump\t// out\n        /* \"#utility.yul\":1884:2213   */\n    tag_28:\n        /* \"#utility.yul\":1943:1949   */\n      0x00\n        /* \"#utility.yul\":1992:1994   */\n      0x20\n        /* \"#utility.yul\":1980:1989   */\n      dup3\n        /* \"#utility.yul\":1971:1978   */\n      dup5\n        /* \"#utility.yul\":1967:1990   */\n      sub\n        /* \"#utility.yul\":1963:1995   */\n      slt\n        /* \"#utility.yul\":1960:2079   */\n      iszero\n      tag_159\n      jumpi\n        /* \"#utility.yul\":1998:2077   */\n      tag_160\n      tag_109\n      jump\t// in\n    tag_160:\n        /* \"#utility.yul\":1960:2079   */\n    tag_159:\n        /* \"#utility.yul\":2118:2119   */\n      0x00\n        /* \"#utility.yul\":2143:2196   */\n      tag_161\n        /* \"#utility.yul\":2188:2195   */\n      dup5\n        /* \"#utility.yul\":2179:2185   */\n      dup3\n        /* \"#utility.yul\":2168:2177   */\n      dup6\n        /* \"#utility.yul\":2164:2186   */\n      add\n        /* \"#utility.yul\":2143:2196   */\n      tag_116\n      jump\t// in\n    tag_161:\n        /* \"#utility.yul\":2133:2196   */\n      swap2\n      pop\n        /* \"#utility.yul\":2089:2206   */\n      pop\n        /* \"#utility.yul\":1884:2213   */\n      swap3\n      swap2\n      pop\n      pop\n      jump\t// out\n        /* \"#utility.yul\":2219:2337   */\n    tag_117:\n        /* \"#utility.yul\":2306:2330   */\n      tag_163\n        /* \"#utility.yul\":2324:2329   */\n      dup2\n        /* \"#utility.yul\":2306:2330   */\n      tag_112\n      jump\t// in\n    tag_163:\n        /* \"#utility.yul\":2301:2304   */\n      dup3\n        /* \"#utility.yul\":2294:2331   */\n      mstore\n        /* \"#utility.yul\":2219:2337   */\n      pop\n      pop\n      jump\t// out\n        /* \"#utility.yul\":2343:2565   */\n    tag_35:\n        /* \"#utility.yul\":2436:2440   */\n      0x00\n        /* \"#utility.yul\":2474:2476   */\n      0x20\n        /* \"#utility.yul\":2463:2472   */\n      dup3\n        /* \"#utility.yul\":2459:2477   */\n      add\n        /* \"#utility.yul\":2451:2477   */\n      swap1\n      pop\n        /* \"#utility.yul\":2487:2558   */\n      tag_165\n        /* \"#utility.yul\":2555:2556   */\n      0x00\n        /* \"#utility.yul\":2544:2553   */\n      dup4\n        /* \"#utility.yul\":2540:2557   */\n      add\n        /* \"#utility.yul\":2531:2537   */\n      dup5\n        /* \"#utility.yul\":2487:2558   */\n      tag_117\n      jump\t// in\n    tag_165:\n        /* \"#utility.yul\":2343:2565   */\n      swap3\n      swap2\n      pop\n      pop\n      jump\t// out\n        /* \"#utility.yul\":2571:2714   */\n    tag_118:\n        /* \"#utility.yul\":2628:2633   */\n      0x00\n        /* \"#utility.yul\":2659:2665   */\n      dup2\n        /* \"#utility.yul\":2653:2666   */\n      mload\n        /* \"#utility.yul\":2644:2666   */\n      swap1\n      pop\n        /* \"#utility.yul\":2675:2708   */\n      tag_167\n        /* \"#utility.yul\":2702:2707   */\n      dup2\n        /* \"#utility.yul\":2675:2708   */\n      tag_115\n      jump\t// in\n    tag_167:\n        /* \"#utility.yul\":2571:2714   */\n      swap3\n      swap2\n      pop\n      pop\n      jump\t// out\n        /* \"#utility.yul\":2720:3071   */\n    tag_53:\n        /* \"#utility.yul\":2790:2796   */\n      0x00\n        /* \"#utility.yul\":2839:2841   */\n      0x20\n        /* \"#utility.yul\":2827:2836   */\n      dup3\n        /* \"#utility.yul\":2818:2825   */\n      dup5\n        /* \"#utility.yul\":2814:2837   */\n      sub\n        /* \"#utility.yul\":2810:2842   */\n      slt\n        /* \"#utility.yul\":2807:2926   */\n      iszero\n      tag_169\n      jumpi\n        /* \"#utility.yul\":2845:2924   */\n      tag_170\n      tag_109\n      jump\t// in\n    tag_170:\n        /* \"#utility.yul\":2807:2926   */\n    tag_169:\n        /* \"#utility.yul\":2965:2966   */\n      0x00\n        /* \"#utility.yul\":2990:3054   */\n      tag_171\n        /* \"#utility.yul\":3046:3053   */\n      dup5\n        /* \"#utility.yul\":3037:3043   */\n      dup3\n        /* \"#utility.yul\":3026:3035   */\n      dup6\n        /* \"#utility.yul\":3022:3044   */\n      add\n        /* \"#utility.yul\":2990:3054   */\n      tag_118\n      jump\t// in\n    tag_171:\n        /* \"#utility.yul\":2980:3054   */\n      swap2\n      pop\n        /* \"#utility.yul\":2936:3064   */\n      pop\n        /* \"#utility.yul\":2720:3071   */\n      swap3\n      swap2\n      pop\n      pop\n      jump\t// out\n        /* \"#utility.yul\":3077:3246   */\n    tag_119:\n        /* \"#utility.yul\":3161:3172   */\n      0x00\n        /* \"#utility.yul\":3195:3201   */\n      dup3\n        /* \"#utility.yul\":3190:3193   */\n      dup3\n        /* \"#utility.yul\":3183:3202   */\n      mstore\n        /* \"#utility.yul\":3235:3239   */\n      0x20\n        /* \"#utility.yul\":3230:3233   */\n      dup3\n        /* \"#utility.yul\":3226:3240   */\n      add\n        /* \"#utility.yul\":3211:3240   */\n      swap1\n      pop\n        /* \"#utility.yul\":3077:3246   */\n      swap3\n      swap2\n      pop\n      pop\n      jump\t// out\n        /* \"#utility.yul\":3252:3423   */\n    tag_120:\n        /* \"#utility.yul\":3392:3415   */\n      0x796f7520617265206e6f7420746865206f776e65720000000000000000000000\n        /* \"#utility.yul\":3388:3389   */\n      0x00\n        /* \"#utility.yul\":3380:3386   */\n      dup3\n        /* \"#utility.yul\":3376:3390   */\n      add\n        /* \"#utility.yul\":3369:3416   */\n      mstore\n        /* \"#utility.yul\":3252:3423   */\n      pop\n      jump\t// out\n        /* \"#utility.yul\":3429:3795   */\n    tag_121:\n        /* \"#utility.yul\":3571:3574   */\n      0x00\n        /* \"#utility.yul\":3592:3659   */\n      tag_175\n        /* \"#utility.yul\":3656:3658   */\n      0x15\n        /* \"#utility.yul\":3651:3654   */\n      dup4\n        /* \"#utility.yul\":3592:3659   */\n      tag_119\n      jump\t// in\n    tag_175:\n        /* \"#utility.yul\":3585:3659   */\n      swap2\n      pop\n        /* \"#utility.yul\":3668:3761   */\n      tag_176\n        /* \"#utility.yul\":3757:3760   */\n      dup3\n        /* \"#utility.yul\":3668:3761   */\n      tag_120\n      jump\t// in\n    tag_176:\n        /* \"#utility.yul\":3786:3788   */\n      0x20\n        /* \"#utility.yul\":3781:3784   */\n      dup3\n        /* \"#utility.yul\":3777:3789   */\n      add\n        /* \"#utility.yul\":3770:3789   */\n      swap1\n      pop\n        /* \"#utility.yul\":3429:3795   */\n      swap2\n      swap1\n      pop\n      jump\t// out\n        /* \"#utility.yul\":3801:4220   */\n    tag_57:\n        /* \"#utility.yul\":3967:3971   */\n      0x00\n        /* \"#utility.yul\":4005:4007   */\n      0x20\n        /* \"#utility.yul\":3994:4003   */\n      dup3\n        /* \"#utility.yul\":3990:4008   */\n      add\n        /* \"#utility.yul\":3982:4008   */\n      swap1\n      pop\n        /* \"#utility.yul\":4054:4063   */\n      dup2\n        /* \"#utility.yul\":4048:4052   */\n      dup2\n        /* \"#utility.yul\":4044:4064   */\n      sub\n        /* \"#utility.yul\":4040:4041   */\n      0x00\n        /* \"#utility.yul\":4029:4038   */\n      dup4\n        /* \"#utility.yul\":4025:4042   */\n      add\n        /* \"#utility.yul\":4018:4065   */\n      mstore\n        /* \"#utility.yul\":4082:4213   */\n      tag_178\n        /* \"#utility.yul\":4208:4212   */\n      dup2\n        /* \"#utility.yul\":4082:4213   */\n      tag_121\n      jump\t// in\n    tag_178:\n        /* \"#utility.yul\":4074:4213   */\n      swap1\n      pop\n        /* \"#utility.yul\":3801:4220   */\n      swap2\n      swap1\n      pop\n      jump\t// out\n        /* \"#utility.yul\":4226:4406   */\n    tag_66:\n        /* \"#utility.yul\":4274:4351   */\n      0x4e487b7100000000000000000000000000000000000000000000000000000000\n        /* \"#utility.yul\":4271:4272   */\n      0x00\n        /* \"#utility.yul\":4264:4352   */\n      mstore\n        /* \"#utility.yul\":4371:4375   */\n      0x32\n        /* \"#utility.yul\":4368:4369   */\n      0x04\n        /* \"#utility.yul\":4361:4376   */\n      mstore\n        /* \"#utility.yul\":4395:4399   */\n      0x24\n        /* \"#utility.yul\":4392:4393   */\n      0x00\n        /* \"#utility.yul\":4385:4400   */\n      revert\n        /* \"#utility.yul\":4412:4592   */\n    tag_70:\n        /* \"#utility.yul\":4460:4537   */\n      0x4e487b7100000000000000000000000000000000000000000000000000000000\n        /* \"#utility.yul\":4457:4458   */\n      0x00\n        /* \"#utility.yul\":4450:4538   */\n      mstore\n        /* \"#utility.yul\":4557:4561   */\n      0x41\n        /* \"#utility.yul\":4554:4555   */\n      0x04\n        /* \"#utility.yul\":4547:4562   */\n      mstore\n        /* \"#utility.yul\":4581:4585   */\n      0x24\n        /* \"#utility.yul\":4578:4579   */\n      0x00\n        /* \"#utility.yul\":4571:4586   */\n      revert\n        /* \"#utility.yul\":4598:4778   */\n    tag_122:\n        /* \"#utility.yul\":4646:4723   */\n      0x4e487b7100000000000000000000000000000000000000000000000000000000\n        /* \"#utility.yul\":4643:4644   */\n      0x00\n        /* \"#utility.yul\":4636:4724   */\n      mstore\n        /* \"#utility.yul\":4743:4747   */\n      0x11\n        /* \"#utility.yul\":4740:4741   */\n      0x04\n        /* \"#utility.yul\":4733:4748   */\n      mstore\n        /* \"#utility.yul\":4767:4771   */\n      0x24\n        /* \"#utility.yul\":4764:4765   */\n      0x00\n        /* \"#utility.yul\":4757:4772   */\n      revert\n        /* \"#utility.yul\":4784:5194   */\n    tag_77:\n        /* \"#utility.yul\":4824:4831   */\n      0x00\n        /* \"#utility.yul\":4847:4867   */\n      tag_183\n        /* \"#utility.yul\":4865:4866   */\n      dup3\n        /* \"#utility.yul\":4847:4867   */\n      tag_106\n      jump\t// in\n    tag_183:\n        /* \"#utility.yul\":4842:4867   */\n      swap2\n      pop\n        /* \"#utility.yul\":4881:4901   */\n      tag_184\n        /* \"#utility.yul\":4899:4900   */\n      dup4\n        /* \"#utility.yul\":4881:4901   */\n      tag_106\n      jump\t// in\n    tag_184:\n        /* \"#utility.yul\":4876:4901   */\n      swap3\n      pop\n        /* \"#utility.yul\":4936:4937   */\n      dup3\n        /* \"#utility.yul\":4933:4934   */\n      dup3\n        /* \"#utility.yul\":4929:4938   */\n      mul\n        /* \"#utility.yul\":4958:4988   */\n      tag_185\n        /* \"#utility.yul\":4976:4987   */\n      dup2\n        /* \"#utility.yul\":4958:4988   */\n      tag_106\n      jump\t// in\n    tag_185:\n        /* \"#utility.yul\":4947:4988   */\n      swap2\n      pop\n        /* \"#utility.yul\":5137:5138   */\n      dup3\n        /* \"#utility.yul\":5128:5135   */\n      dup3\n        /* \"#utility.yul\":5124:5139   */\n      div\n        /* \"#utility.yul\":5121:5122   */\n      dup5\n        /* \"#utility.yul\":5118:5140   */\n      eq\n        /* \"#utility.yul\":5098:5099   */\n      dup4\n        /* \"#utility.yul\":5091:5100   */\n      iszero\n        /* \"#utility.yul\":5071:5154   */\n      or\n        /* \"#utility.yul\":5048:5187   */\n      tag_186\n      jumpi\n        /* \"#utility.yul\":5167:5185   */\n      tag_187\n      tag_122\n      jump\t// in\n    tag_187:\n        /* \"#utility.yul\":5048:5187   */\n    tag_186:\n        /* \"#utility.yul\":4832:5194   */\n      pop\n        /* \"#utility.yul\":4784:5194   */\n      swap3\n      swap2\n      pop\n      pop\n      jump\t// out\n        /* \"#utility.yul\":5200:5380   */\n    tag_123:\n        /* \"#utility.yul\":5248:5325   */\n      0x4e487b7100000000000000000000000000000000000000000000000000000000\n        /* \"#utility.yul\":5245:5246   */\n      0x00\n        /* \"#utility.yul\":5238:5326   */\n      mstore\n        /* \"#utility.yul\":5345:5349   */\n      0x12\n        /* \"#utility.yul\":5342:5343   */\n      0x04\n        /* \"#utility.yul\":5335:5350   */\n      mstore\n        /* \"#utility.yul\":5369:5373   */\n      0x24\n        /* \"#utility.yul\":5366:5367   */\n      0x00\n        /* \"#utility.yul\":5359:5374   */\n      revert\n        /* \"#utility.yul\":5386:5571   */\n    tag_79:\n        /* \"#utility.yul\":5426:5427   */\n      0x00\n        /* \"#utility.yul\":5443:5463   */\n      tag_190\n        /* \"#utility.yul\":5461:5462   */\n      dup3\n        /* \"#utility.yul\":5443:5463   */\n      tag_106\n      jump\t// in\n    tag_190:\n        /* \"#utility.yul\":5438:5463   */\n      swap2\n      pop\n        /* \"#utility.yul\":5477:5497   */\n      tag_191\n        /* \"#utility.yul\":5495:5496   */\n      dup4\n        /* \"#utility.yul\":5477:5497   */\n      tag_106\n      jump\t// in\n    tag_191:\n        /* \"#utility.yul\":5472:5497   */\n      swap3\n      pop\n        /* \"#utility.yul\":5516:5517   */\n      dup3\n        /* \"#utility.yul\":5506:5541   */\n      tag_192\n      jumpi\n        /* \"#utility.yul\":5521:5539   */\n      tag_193\n      tag_123\n      jump\t// in\n    tag_193:\n        /* \"#utility.yul\":5506:5541   */\n    tag_192:\n        /* \"#utility.yul\":5563:5564   */\n      dup3\n        /* \"#utility.yul\":5560:5561   */\n      dup3\n        /* \"#utility.yul\":5556:5565   */\n      div\n        /* \"#utility.yul\":5551:5565   */\n      swap1\n      pop\n        /* \"#utility.yul\":5386:5571   */\n      swap3\n      swap2\n      pop\n      pop\n      jump\t// out\n        /* \"#utility.yul\":5577:5682   */\n    tag_124:\n        /* \"#utility.yul\":5613:5620   */\n      0x00\n        /* \"#utility.yul\":5653:5675   */\n      0xffffffffffffffffffff\n        /* \"#utility.yul\":5646:5651   */\n      dup3\n        /* \"#utility.yul\":5642:5676   */\n      and\n        /* \"#utility.yul\":5631:5676   */\n      swap1\n      pop\n        /* \"#utility.yul\":5577:5682   */\n      swap2\n      swap1\n      pop\n      jump\t// out\n        /* \"#utility.yul\":5688:5808   */\n    tag_125:\n        /* \"#utility.yul\":5760:5783   */\n      tag_196\n        /* \"#utility.yul\":5777:5782   */\n      dup2\n        /* \"#utility.yul\":5760:5783   */\n      tag_124\n      jump\t// in\n    tag_196:\n        /* \"#utility.yul\":5753:5758   */\n      dup2\n        /* \"#utility.yul\":5750:5784   */\n      eq\n        /* \"#utility.yul\":5740:5802   */\n      tag_197\n      jumpi\n        /* \"#utility.yul\":5798:5799   */\n      0x00\n        /* \"#utility.yul\":5795:5796   */\n      dup1\n        /* \"#utility.yul\":5788:5800   */\n      revert\n        /* \"#utility.yul\":5740:5802   */\n    tag_197:\n        /* \"#utility.yul\":5688:5808   */\n      pop\n      jump\t// out\n        /* \"#utility.yul\":5814:5955   */\n    tag_126:\n        /* \"#utility.yul\":5870:5875   */\n      0x00\n        /* \"#utility.yul\":5901:5907   */\n      dup2\n        /* \"#utility.yul\":5895:5908   */\n      mload\n        /* \"#utility.yul\":5886:5908   */\n      swap1\n      pop\n        /* \"#utility.yul\":5917:5949   */\n      tag_199\n        /* \"#utility.yul\":5943:5948   */\n      dup2\n        /* \"#utility.yul\":5917:5949   */\n      tag_125\n      jump\t// in\n    tag_199:\n        /* \"#utility.yul\":5814:5955   */\n      swap3\n      swap2\n      pop\n      pop\n      jump\t// out\n        /* \"#utility.yul\":5961:6037   */\n    tag_127:\n        /* \"#utility.yul\":5997:6004   */\n      0x00\n        /* \"#utility.yul\":6026:6031   */\n      dup2\n        /* \"#utility.yul\":6015:6031   */\n      swap1\n      pop\n        /* \"#utility.yul\":5961:6037   */\n      swap2\n      swap1\n      pop\n      jump\t// out\n        /* \"#utility.yul\":6043:6163   */\n    tag_128:\n        /* \"#utility.yul\":6115:6138   */\n      tag_202\n        /* \"#utility.yul\":6132:6137   */\n      dup2\n        /* \"#utility.yul\":6115:6138   */\n      tag_127\n      jump\t// in\n    tag_202:\n        /* \"#utility.yul\":6108:6113   */\n      dup2\n        /* \"#utility.yul\":6105:6139   */\n      eq\n        /* \"#utility.yul\":6095:6157   */\n      tag_203\n      jumpi\n        /* \"#utility.yul\":6153:6154   */\n      0x00\n        /* \"#utility.yul\":6150:6151   */\n      dup1\n        /* \"#utility.yul\":6143:6155   */\n      revert\n        /* \"#utility.yul\":6095:6157   */\n    tag_203:\n        /* \"#utility.yul\":6043:6163   */\n      pop\n      jump\t// out\n        /* \"#utility.yul\":6169:6310   */\n    tag_129:\n        /* \"#utility.yul\":6225:6230   */\n      0x00\n        /* \"#utility.yul\":6256:6262   */\n      dup2\n        /* \"#utility.yul\":6250:6263   */\n      mload\n        /* \"#utility.yul\":6241:6263   */\n      swap1\n      pop\n        /* \"#utility.yul\":6272:6304   */\n      tag_205\n        /* \"#utility.yul\":6298:6303   */\n      dup2\n        /* \"#utility.yul\":6272:6304   */\n      tag_128\n      jump\t// in\n    tag_205:\n        /* \"#utility.yul\":6169:6310   */\n      swap3\n      swap2\n      pop\n      pop\n      jump\t// out\n        /* \"#utility.yul\":6316:7287   */\n    tag_84:\n        /* \"#utility.yul\":6419:6425   */\n      0x00\n        /* \"#utility.yul\":6427:6433   */\n      dup1\n        /* \"#utility.yul\":6435:6441   */\n      0x00\n        /* \"#utility.yul\":6443:6449   */\n      dup1\n        /* \"#utility.yul\":6451:6457   */\n      0x00\n        /* \"#utility.yul\":6500:6503   */\n      0xa0\n        /* \"#utility.yul\":6488:6497   */\n      dup7\n        /* \"#utility.yul\":6479:6486   */\n      dup9\n        /* \"#utility.yul\":6475:6498   */\n      sub\n        /* \"#utility.yul\":6471:6504   */\n      slt\n        /* \"#utility.yul\":6468:6588   */\n      iszero\n      tag_207\n      jumpi\n        /* \"#utility.yul\":6507:6586   */\n      tag_208\n      tag_109\n      jump\t// in\n    tag_208:\n        /* \"#utility.yul\":6468:6588   */\n    tag_207:\n        /* \"#utility.yul\":6627:6628   */\n      0x00\n        /* \"#utility.yul\":6652:6715   */\n      tag_209\n        /* \"#utility.yul\":6707:6714   */\n      dup9\n        /* \"#utility.yul\":6698:6704   */\n      dup3\n        /* \"#utility.yul\":6687:6696   */\n      dup10\n        /* \"#utility.yul\":6683:6705   */\n      add\n        /* \"#utility.yul\":6652:6715   */\n      tag_126\n      jump\t// in\n    tag_209:\n        /* \"#utility.yul\":6642:6715   */\n      swap6\n      pop\n        /* \"#utility.yul\":6598:6725   */\n      pop\n        /* \"#utility.yul\":6764:6766   */\n      0x20\n        /* \"#utility.yul\":6790:6853   */\n      tag_210\n        /* \"#utility.yul\":6845:6852   */\n      dup9\n        /* \"#utility.yul\":6836:6842   */\n      dup3\n        /* \"#utility.yul\":6825:6834   */\n      dup10\n        /* \"#utility.yul\":6821:6843   */\n      add\n        /* \"#utility.yul\":6790:6853   */\n      tag_129\n      jump\t// in\n    tag_210:\n        /* \"#utility.yul\":6780:6853   */\n      swap5\n      pop\n        /* \"#utility.yul\":6735:6863   */\n      pop\n        /* \"#utility.yul\":6902:6904   */\n      0x40\n        /* \"#utility.yul\":6928:6992   */\n      tag_211\n        /* \"#utility.yul\":6984:6991   */\n      dup9\n        /* \"#utility.yul\":6975:6981   */\n      dup3\n        /* \"#utility.yul\":6964:6973   */\n      dup10\n        /* \"#utility.yul\":6960:6982   */\n      add\n        /* \"#utility.yul\":6928:6992   */\n      tag_118\n      jump\t// in\n    tag_211:\n        /* \"#utility.yul\":6918:6992   */\n      swap4\n      pop\n        /* \"#utility.yul\":6873:7002   */\n      pop\n        /* \"#utility.yul\":7041:7043   */\n      0x60\n        /* \"#utility.yul\":7067:7131   */\n      tag_212\n        /* \"#utility.yul\":7123:7130   */\n      dup9\n        /* \"#utility.yul\":7114:7120   */\n      dup3\n        /* \"#utility.yul\":7103:7112   */\n      dup10\n        /* \"#utility.yul\":7099:7121   */\n      add\n        /* \"#utility.yul\":7067:7131   */\n      tag_118\n      jump\t// in\n    tag_212:\n        /* \"#utility.yul\":7057:7131   */\n      swap3\n      pop\n        /* \"#utility.yul\":7012:7141   */\n      pop\n        /* \"#utility.yul\":7180:7183   */\n      0x80\n        /* \"#utility.yul\":7207:7270   */\n      tag_213\n        /* \"#utility.yul\":7262:7269   */\n      dup9\n        /* \"#utility.yul\":7253:7259   */\n      dup3\n        /* \"#utility.yul\":7242:7251   */\n      dup10\n        /* \"#utility.yul\":7238:7260   */\n      add\n        /* \"#utility.yul\":7207:7270   */\n      tag_126\n      jump\t// in\n    tag_213:\n        /* \"#utility.yul\":7197:7270   */\n      swap2\n      pop\n        /* \"#utility.yul\":7151:7280   */\n      pop\n        /* \"#utility.yul\":6316:7287   */\n      swap3\n      swap6\n      pop\n      swap3\n      swap6\n      swap1\n      swap4\n      pop\n      jump\t// out\n        /* \"#utility.yul\":7293:7484   */\n    tag_87:\n        /* \"#utility.yul\":7333:7336   */\n      0x00\n        /* \"#utility.yul\":7352:7372   */\n      tag_215\n        /* \"#utility.yul\":7370:7371   */\n      dup3\n        /* \"#utility.yul\":7352:7372   */\n      tag_106\n      jump\t// in\n    tag_215:\n        /* \"#utility.yul\":7347:7372   */\n      swap2\n      pop\n        /* \"#utility.yul\":7386:7406   */\n      tag_216\n        /* \"#utility.yul\":7404:7405   */\n      dup4\n        /* \"#utility.yul\":7386:7406   */\n      tag_106\n      jump\t// in\n    tag_216:\n        /* \"#utility.yul\":7381:7406   */\n      swap3\n      pop\n        /* \"#utility.yul\":7429:7430   */\n      dup3\n        /* \"#utility.yul\":7426:7427   */\n      dup3\n        /* \"#utility.yul\":7422:7431   */\n      add\n        /* \"#utility.yul\":7415:7431   */\n      swap1\n      pop\n        /* \"#utility.yul\":7450:7453   */\n      dup1\n        /* \"#utility.yul\":7447:7448   */\n      dup3\n        /* \"#utility.yul\":7444:7454   */\n      gt\n        /* \"#utility.yul\":7441:7477   */\n      iszero\n      tag_217\n      jumpi\n        /* \"#utility.yul\":7457:7475   */\n      tag_218\n      tag_122\n      jump\t// in\n    tag_218:\n        /* \"#utility.yul\":7441:7477   */\n    tag_217:\n        /* \"#utility.yul\":7293:7484   */\n      swap3\n      swap2\n      pop\n      pop\n      jump\t// out\n        /* \"#utility.yul\":7490:7652   */\n    tag_130:\n        /* \"#utility.yul\":7630:7644   */\n      0x726576657274206572726f720000000000000000000000000000000000000000\n        /* \"#utility.yul\":7626:7627   */\n      0x00\n        /* \"#utility.yul\":7618:7624   */\n      dup3\n        /* \"#utility.yul\":7614:7628   */\n      add\n        /* \"#utility.yul\":7607:7645   */\n      mstore\n        /* \"#utility.yul\":7490:7652   */\n      pop\n      jump\t// out\n        /* \"#utility.yul\":7658:8024   */\n    tag_131:\n        /* \"#utility.yul\":7800:7803   */\n      0x00\n        /* \"#utility.yul\":7821:7888   */\n      tag_221\n        /* \"#utility.yul\":7885:7887   */\n      0x0c\n        /* \"#utility.yul\":7880:7883   */\n      dup4\n        /* \"#utility.yul\":7821:7888   */\n      tag_119\n      jump\t// in\n    tag_221:\n        /* \"#utility.yul\":7814:7888   */\n      swap2\n      pop\n        /* \"#utility.yul\":7897:7990   */\n      tag_222\n        /* \"#utility.yul\":7986:7989   */\n      dup3\n        /* \"#utility.yul\":7897:7990   */\n      tag_130\n      jump\t// in\n    tag_222:\n        /* \"#utility.yul\":8015:8017   */\n      0x20\n        /* \"#utility.yul\":8010:8013   */\n      dup3\n        /* \"#utility.yul\":8006:8018   */\n      add\n        /* \"#utility.yul\":7999:8018   */\n      swap1\n      pop\n        /* \"#utility.yul\":7658:8024   */\n      swap2\n      swap1\n      pop\n      jump\t// out\n        /* \"#utility.yul\":8030:8449   */\n    tag_96:\n        /* \"#utility.yul\":8196:8200   */\n      0x00\n        /* \"#utility.yul\":8234:8236   */\n      0x20\n        /* \"#utility.yul\":8223:8232   */\n      dup3\n        /* \"#utility.yul\":8219:8237   */\n      add\n        /* \"#utility.yul\":8211:8237   */\n      swap1\n      pop\n        /* \"#utility.yul\":8283:8292   */\n      dup2\n        /* \"#utility.yul\":8277:8281   */\n      dup2\n        /* \"#utility.yul\":8273:8293   */\n      sub\n        /* \"#utility.yul\":8269:8270   */\n      0x00\n        /* \"#utility.yul\":8258:8267   */\n      dup4\n        /* \"#utility.yul\":8254:8271   */\n      add\n        /* \"#utility.yul\":8247:8294   */\n      mstore\n        /* \"#utility.yul\":8311:8442   */\n      tag_224\n        /* \"#utility.yul\":8437:8441   */\n      dup2\n        /* \"#utility.yul\":8311:8442   */\n      tag_131\n      jump\t// in\n    tag_224:\n        /* \"#utility.yul\":8303:8442   */\n      swap1\n      pop\n        /* \"#utility.yul\":8030:8449   */\n      swap2\n      swap1\n      pop\n      jump\t// out\n\n    auxdata: 0xa2646970667358221220eb5c86c3e1582bd4c6148cc3808ee22789360996105eb534e9c6e71775a0a21564736f6c634300081a0033\n}\n",
				"bytecode": {
					"linkReferences": {},
					"object": "6080604052348015600e575f80fd5b50335f806101000a81548173ffffffffffffffffffffffffffffffffffffffff021916908373ffffffffffffffffffffffffffffffffffffffff160217905550610ca18061005b5f395ff3fe608060405260043610610085575f3560e01c80638da5cb5b116100585780638da5cb5b1461013557806398d5fdca1461015f578063b60d428814610189578063dc0d3dff14610193578063f5b27d2b146101cf57610085565b80630d8e6e2c146100895780633ccfd60b146100b35780633e47d6f3146100bd5780636e5b6b28146100f9575b5f80fd5b348015610094575f80fd5b5061009d6101d9565b6040516100aa91906107ec565b60405180910390f35b6100bb610265565b005b3480156100c8575f80fd5b506100e360048036038101906100de9190610863565b610436565b6040516100f091906107ec565b60405180910390f35b348015610104575f80fd5b5061011f600480360381019061011a91906108b8565b61044b565b60405161012c91906107ec565b60405180910390f35b348015610140575f80fd5b50610149610483565b60405161015691906108f2565b60405180910390f35b34801561016a575f80fd5b506101736104a6565b60405161018091906107ec565b60405180910390f35b61019161053b565b005b34801561019e575f80fd5b506101b960048036038101906101b491906108b8565b6105f0565b6040516101c691906108f2565b60405180910390f35b6101d761062b565b005b5f8073694aa1769357215de4fac081bf1f309adc32530690508073ffffffffffffffffffffffffffffffffffffffff166354fd4d506040518163ffffffff1660e01b8152600401602060405180830381865afa15801561023b573d5f803e3d5ffd5b505050506040513d601f19601f8201168201806040525081019061025f919061091f565b91505090565b5f8054906101000a900473ffffffffffffffffffffffffffffffffffffffff1673ffffffffffffffffffffffffffffffffffffffff163373ffffffffffffffffffffffffffffffffffffffff16146102f2576040517f08c379a00000000000000000000000000000000000000000000000000000000081526004016102e9906109a4565b60405180910390fd5b3373ffffffffffffffffffffffffffffffffffffffff166108fc4790811502906040515f60405180830381858888f19350505050158015610335573d5f803e3d5ffd5b505f5b6002805490508110156103d4575f6002828154811061035a576103596109c2565b5b905f5260205f20015f9054906101000a900473ffffffffffffffffffffffffffffffffffffffff1690505f60015f8373ffffffffffffffffffffffffffffffffffffffff1673ffffffffffffffffffffffffffffffffffffffff1681526020019081526020015f2081905550508080600101915050610338565b505f67ffffffffffffffff8111156103ef576103ee6109ef565b5b60405190808252806020026020018201604052801561041d5781602001602082028036833780820191505090505b5060029080519060200190610433929190610732565b50565b6001602052805f5260405f205f915090505481565b5f806104556104a6565b90505f670de0b6b3a7640000848361046d9190610a49565b6104779190610ab7565b90508092505050919050565b5f8054906101000a900473ffffffffffffffffffffffffffffffffffffffff1681565b5f8073694aa1769357215de4fac081bf1f309adc32530690505f8173ffffffffffffffffffffffffffffffffffffffff1663feaf968c6040518163ffffffff1660e01b815260040160a060405180830381865afa158015610509573d5f803e3d5ffd5b505050506040513d601f19601f8201168201806040525081019061052d9190610b59565b505050915050809250505090565b3460015f3373ffffffffffffffffffffffffffffffffffffffff1673ffffffffffffffffffffffffffffffffffffffff1681526020019081526020015f205f8282546105879190610bd0565b92505081905550600233908060018154018082558091505060019003905f5260205f20015f9091909190916101000a81548173ffffffffffffffffffffffffffffffffffffffff021916908373ffffffffffffffffffffffffffffffffffffffff160217905550565b600281815481106105ff575f80fd5b905f5260205f20015f915054906101000a900473ffffffffffffffffffffffffffffffffffffffff1681565b6106336104a6565b61063c3461044b565b101561067d576040517f08c379a000000000000000000000000000000000000000000000000000000000815260040161067490610c4d565b60405180910390fd5b3460015f3373ffffffffffffffffffffffffffffffffffffffff1673ffffffffffffffffffffffffffffffffffffffff1681526020019081526020015f205f8282546106c99190610bd0565b92505081905550600233908060018154018082558091505060019003905f5260205f20015f9091909190916101000a81548173ffffffffffffffffffffffffffffffffffffffff021916908373ffffffffffffffffffffffffffffffffffffffff160217905550565b828054828255905f5260205f209081019282156107a8579160200282015b828111156107a7578251825f6101000a81548173ffffffffffffffffffffffffffffffffffffffff021916908373ffffffffffffffffffffffffffffffffffffffff16021790555091602001919060010190610750565b5b5090506107b591906107b9565b5090565b5b808211156107d0575f815f9055506001016107ba565b5090565b5f819050919050565b6107e6816107d4565b82525050565b5f6020820190506107ff5f8301846107dd565b92915050565b5f80fd5b5f73ffffffffffffffffffffffffffffffffffffffff82169050919050565b5f61083282610809565b9050919050565b61084281610828565b811461084c575f80fd5b50565b5f8135905061085d81610839565b92915050565b5f6020828403121561087857610877610805565b5b5f6108858482850161084f565b91505092915050565b610897816107d4565b81146108a1575f80fd5b50565b5f813590506108b28161088e565b92915050565b5f602082840312156108cd576108cc610805565b5b5f6108da848285016108a4565b91505092915050565b6108ec81610828565b82525050565b5f6020820190506109055f8301846108e3565b92915050565b5f815190506109198161088e565b92915050565b5f6020828403121561093457610933610805565b5b5f6109418482850161090b565b91505092915050565b5f82825260208201905092915050565b7f796f7520617265206e6f7420746865206f776e657200000000000000000000005f82015250565b5f61098e60158361094a565b91506109998261095a565b602082019050919050565b5f6020820190508181035f8301526109bb81610982565b9050919050565b7f4e487b71000000000000000000000000000000000000000000000000000000005f52603260045260245ffd5b7f4e487b71000000000000000000000000000000000000000000000000000000005f52604160045260245ffd5b7f4e487b71000000000000000000000000000000000000000000000000000000005f52601160045260245ffd5b5f610a53826107d4565b9150610a5e836107d4565b9250828202610a6c816107d4565b91508282048414831517610a8357610a82610a1c565b5b5092915050565b7f4e487b71000000000000000000000000000000000000000000000000000000005f52601260045260245ffd5b5f610ac1826107d4565b9150610acc836107d4565b925082610adc57610adb610a8a565b5b828204905092915050565b5f69ffffffffffffffffffff82169050919050565b610b0581610ae7565b8114610b0f575f80fd5b50565b5f81519050610b2081610afc565b92915050565b5f819050919050565b610b3881610b26565b8114610b42575f80fd5b50565b5f81519050610b5381610b2f565b92915050565b5f805f805f60a08688031215610b7257610b71610805565b5b5f610b7f88828901610b12565b9550506020610b9088828901610b45565b9450506040610ba18882890161090b565b9350506060610bb28882890161090b565b9250506080610bc388828901610b12565b9150509295509295909350565b5f610bda826107d4565b9150610be5836107d4565b9250828201905080821115610bfd57610bfc610a1c565b5b92915050565b7f726576657274206572726f7200000000000000000000000000000000000000005f82015250565b5f610c37600c8361094a565b9150610c4282610c03565b602082019050919050565b5f6020820190508181035f830152610c6481610c2b565b905091905056fea2646970667358221220eb5c86c3e1582bd4c6148cc3808ee22789360996105eb534e9c6e71775a0a21564736f6c634300081a0033",
					"opcodes": "PUSH1 0x80 PUSH1 0x40 MSTORE CALLVALUE DUP1 ISZERO PUSH1 0xE JUMPI PUSH0 DUP1 REVERT JUMPDEST POP CALLER PUSH0 DUP1 PUSH2 0x100 EXP DUP2 SLOAD DUP2 PUSH20 0xFFFFFFFFFFFFFFFFFFFFFFFFFFFFFFFFFFFFFFFF MUL NOT AND SWAP1 DUP4 PUSH20 0xFFFFFFFFFFFFFFFFFFFFFFFFFFFFFFFFFFFFFFFF AND MUL OR SWAP1 SSTORE POP PUSH2 0xCA1 DUP1 PUSH2 0x5B PUSH0 CODECOPY PUSH0 RETURN INVALID PUSH1 0x80 PUSH1 0x40 MSTORE PUSH1 0x4 CALLDATASIZE LT PUSH2 0x85 JUMPI PUSH0 CALLDATALOAD PUSH1 0xE0 SHR DUP1 PUSH4 0x8DA5CB5B GT PUSH2 0x58 JUMPI DUP1 PUSH4 0x8DA5CB5B EQ PUSH2 0x135 JUMPI DUP1 PUSH4 0x98D5FDCA EQ PUSH2 0x15F JUMPI DUP1 PUSH4 0xB60D4288 EQ PUSH2 0x189 JUMPI DUP1 PUSH4 0xDC0D3DFF EQ PUSH2 0x193 JUMPI DUP1 PUSH4 0xF5B27D2B EQ PUSH2 0x1CF JUMPI PUSH2 0x85 JUMP JUMPDEST DUP1 PUSH4 0xD8E6E2C EQ PUSH2 0x89 JUMPI DUP1 PUSH4 0x3CCFD60B EQ PUSH2 0xB3 JUMPI DUP1 PUSH4 0x3E47D6F3 EQ PUSH2 0xBD JUMPI DUP1 PUSH4 0x6E5B6B28 EQ PUSH2 0xF9 JUMPI JUMPDEST PUSH0 DUP1 REVERT JUMPDEST CALLVALUE DUP1 ISZERO PUSH2 0x94 JUMPI PUSH0 DUP1 REVERT JUMPDEST POP PUSH2 0x9D PUSH2 0x1D9 JUMP JUMPDEST PUSH1 0x40 MLOAD PUSH2 0xAA SWAP2 SWAP1 PUSH2 0x7EC JUMP JUMPDEST PUSH1 0x40 MLOAD DUP1 SWAP2 SUB SWAP1 RETURN JUMPDEST PUSH2 0xBB PUSH2 0x265 JUMP JUMPDEST STOP JUMPDEST CALLVALUE DUP1 ISZERO PUSH2 0xC8 JUMPI PUSH0 DUP1 REVERT JUMPDEST POP PUSH2 0xE3 PUSH1 0x4 DUP1 CALLDATASIZE SUB DUP2 ADD SWAP1 PUSH2 0xDE SWAP2 SWAP1 PUSH2 0x863 JUMP JUMPDEST PUSH2 0x436 JUMP JUMPDEST PUSH1 0x40 MLOAD PUSH2 0xF0 SWAP2 SWAP1 PUSH2 0x7EC JUMP JUMPDEST PUSH1 0x40 MLOAD DUP1 SWAP2 SUB SWAP1 RETURN JUMPDEST CALLVALUE DUP1 ISZERO PUSH2 0x104 JUMPI PUSH0 DUP1 REVERT JUMPDEST POP PUSH2 0x11F PUSH1 0x4 DUP1 CALLDATASIZE SUB DUP2 ADD SWAP1 PUSH2 0x11A SWAP2 SWAP1 PUSH2 0x8B8 JUMP JUMPDEST PUSH2 0x44B JUMP JUMPDEST PUSH1 0x40 MLOAD PUSH2 0x12C SWAP2 SWAP1 PUSH2 0x7EC JUMP JUMPDEST PUSH1 0x40 MLOAD DUP1 SWAP2 SUB SWAP1 RETURN JUMPDEST CALLVALUE DUP1 ISZERO PUSH2 0x140 JUMPI PUSH0 DUP1 REVERT JUMPDEST POP PUSH2 0x149 PUSH2 0x483 JUMP JUMPDEST PUSH1 0x40 MLOAD PUSH2 0x156 SWAP2 SWAP1 PUSH2 0x8F2 JUMP JUMPDEST PUSH1 0x40 MLOAD DUP1 SWAP2 SUB SWAP1 RETURN JUMPDEST CALLVALUE DUP1 ISZERO PUSH2 0x16A JUMPI PUSH0 DUP1 REVERT JUMPDEST POP PUSH2 0x173 PUSH2 0x4A6 JUMP JUMPDEST PUSH1 0x40 MLOAD PUSH2 0x180 SWAP2 SWAP1 PUSH2 0x7EC JUMP JUMPDEST PUSH1 0x40 MLOAD DUP1 SWAP2 SUB SWAP1 RETURN JUMPDEST PUSH2 0x191 PUSH2 0x53B JUMP JUMPDEST STOP JUMPDEST CALLVALUE DUP1 ISZERO PUSH2 0x19E JUMPI PUSH0 DUP1 REVERT JUMPDEST POP PUSH2 0x1B9 PUSH1 0x4 DUP1 CALLDATASIZE SUB DUP2 ADD SWAP1 PUSH2 0x1B4 SWAP2 SWAP1 PUSH2 0x8B8 JUMP JUMPDEST PUSH2 0x5F0 JUMP JUMPDEST PUSH1 0x40 MLOAD PUSH2 0x1C6 SWAP2 SWAP1 PUSH2 0x8F2 JUMP JUMPDEST PUSH1 0x40 MLOAD DUP1 SWAP2 SUB SWAP1 RETURN JUMPDEST PUSH2 0x1D7 PUSH2 0x62B JUMP JUMPDEST STOP JUMPDEST PUSH0 DUP1 PUSH20 0x694AA1769357215DE4FAC081BF1F309ADC325306 SWAP1 POP DUP1 PUSH20 0xFFFFFFFFFFFFFFFFFFFFFFFFFFFFFFFFFFFFFFFF AND PUSH4 0x54FD4D50 PUSH1 0x40 MLOAD DUP2 PUSH4 0xFFFFFFFF AND PUSH1 0xE0 SHL DUP2 MSTORE PUSH1 0x4 ADD PUSH1 0x20 PUSH1 0x40 MLOAD DUP1 DUP4 SUB DUP2 DUP7 GAS STATICCALL ISZERO DUP1 ISZERO PUSH2 0x23B JUMPI RETURNDATASIZE PUSH0 DUP1 RETURNDATACOPY RETURNDATASIZE PUSH0 REVERT JUMPDEST POP POP POP POP PUSH1 0x40 MLOAD RETURNDATASIZE PUSH1 0x1F NOT PUSH1 0x1F DUP3 ADD AND DUP3 ADD DUP1 PUSH1 0x40 MSTORE POP DUP2 ADD SWAP1 PUSH2 0x25F SWAP2 SWAP1 PUSH2 0x91F JUMP JUMPDEST SWAP2 POP POP SWAP1 JUMP JUMPDEST PUSH0 DUP1 SLOAD SWAP1 PUSH2 0x100 EXP SWAP1 DIV PUSH20 0xFFFFFFFFFFFFFFFFFFFFFFFFFFFFFFFFFFFFFFFF AND PUSH20 0xFFFFFFFFFFFFFFFFFFFFFFFFFFFFFFFFFFFFFFFF AND CALLER PUSH20 0xFFFFFFFFFFFFFFFFFFFFFFFFFFFFFFFFFFFFFFFF AND EQ PUSH2 0x2F2 JUMPI PUSH1 0x40 MLOAD PUSH32 0x8C379A000000000000000000000000000000000000000000000000000000000 DUP2 MSTORE PUSH1 0x4 ADD PUSH2 0x2E9 SWAP1 PUSH2 0x9A4 JUMP JUMPDEST PUSH1 0x40 MLOAD DUP1 SWAP2 SUB SWAP1 REVERT JUMPDEST CALLER PUSH20 0xFFFFFFFFFFFFFFFFFFFFFFFFFFFFFFFFFFFFFFFF AND PUSH2 0x8FC SELFBALANCE SWAP1 DUP2 ISZERO MUL SWAP1 PUSH1 0x40 MLOAD PUSH0 PUSH1 0x40 MLOAD DUP1 DUP4 SUB DUP2 DUP6 DUP9 DUP9 CALL SWAP4 POP POP POP POP ISZERO DUP1 ISZERO PUSH2 0x335 JUMPI RETURNDATASIZE PUSH0 DUP1 RETURNDATACOPY RETURNDATASIZE PUSH0 REVERT JUMPDEST POP PUSH0 JUMPDEST PUSH1 0x2 DUP1 SLOAD SWAP1 POP DUP2 LT ISZERO PUSH2 0x3D4 JUMPI PUSH0 PUSH1 0x2 DUP3 DUP2 SLOAD DUP2 LT PUSH2 0x35A JUMPI PUSH2 0x359 PUSH2 0x9C2 JUMP JUMPDEST JUMPDEST SWAP1 PUSH0 MSTORE PUSH1 0x20 PUSH0 KECCAK256 ADD PUSH0 SWAP1 SLOAD SWAP1 PUSH2 0x100 EXP SWAP1 DIV PUSH20 0xFFFFFFFFFFFFFFFFFFFFFFFFFFFFFFFFFFFFFFFF AND SWAP1 POP PUSH0 PUSH1 0x1 PUSH0 DUP4 PUSH20 0xFFFFFFFFFFFFFFFFFFFFFFFFFFFFFFFFFFFFFFFF AND PUSH20 0xFFFFFFFFFFFFFFFFFFFFFFFFFFFFFFFFFFFFFFFF AND DUP2 MSTORE PUSH1 0x20 ADD SWAP1 DUP2 MSTORE PUSH1 0x20 ADD PUSH0 KECCAK256 DUP2 SWAP1 SSTORE POP POP DUP1 DUP1 PUSH1 0x1 ADD SWAP2 POP POP PUSH2 0x338 JUMP JUMPDEST POP PUSH0 PUSH8 0xFFFFFFFFFFFFFFFF DUP2 GT ISZERO PUSH2 0x3EF JUMPI PUSH2 0x3EE PUSH2 0x9EF JUMP JUMPDEST JUMPDEST PUSH1 0x40 MLOAD SWAP1 DUP1 DUP3 MSTORE DUP1 PUSH1 0x20 MUL PUSH1 0x20 ADD DUP3 ADD PUSH1 0x40 MSTORE DUP1 ISZERO PUSH2 0x41D JUMPI DUP2 PUSH1 0x20 ADD PUSH1 0x20 DUP3 MUL DUP1 CALLDATASIZE DUP4 CALLDATACOPY DUP1 DUP3 ADD SWAP2 POP POP SWAP1 POP JUMPDEST POP PUSH1 0x2 SWAP1 DUP1 MLOAD SWAP1 PUSH1 0x20 ADD SWAP1 PUSH2 0x433 SWAP3 SWAP2 SWAP1 PUSH2 0x732 JUMP JUMPDEST POP JUMP JUMPDEST PUSH1 0x1 PUSH1 0x20 MSTORE DUP1 PUSH0 MSTORE PUSH1 0x40 PUSH0 KECCAK256 PUSH0 SWAP2 POP SWAP1 POP SLOAD DUP2 JUMP JUMPDEST PUSH0 DUP1 PUSH2 0x455 PUSH2 0x4A6 JUMP JUMPDEST SWAP1 POP PUSH0 PUSH8 0xDE0B6B3A7640000 DUP5 DUP4 PUSH2 0x46D SWAP2 SWAP1 PUSH2 0xA49 JUMP JUMPDEST PUSH2 0x477 SWAP2 SWAP1 PUSH2 0xAB7 JUMP JUMPDEST SWAP1 POP DUP1 SWAP3 POP POP POP SWAP2 SWAP1 POP JUMP JUMPDEST PUSH0 DUP1 SLOAD SWAP1 PUSH2 0x100 EXP SWAP1 DIV PUSH20 0xFFFFFFFFFFFFFFFFFFFFFFFFFFFFFFFFFFFFFFFF AND DUP2 JUMP JUMPDEST PUSH0 DUP1 PUSH20 0x694AA1769357215DE4FAC081BF1F309ADC325306 SWAP1 POP PUSH0 DUP2 PUSH20 0xFFFFFFFFFFFFFFFFFFFFFFFFFFFFFFFFFFFFFFFF AND PUSH4 0xFEAF968C PUSH1 0x40 MLOAD DUP2 PUSH4 0xFFFFFFFF AND PUSH1 0xE0 SHL DUP2 MSTORE PUSH1 0x4 ADD PUSH1 0xA0 PUSH1 0x40 MLOAD DUP1 DUP4 SUB DUP2 DUP7 GAS STATICCALL ISZERO DUP1 ISZERO PUSH2 0x509 JUMPI RETURNDATASIZE PUSH0 DUP1 RETURNDATACOPY RETURNDATASIZE PUSH0 REVERT JUMPDEST POP POP POP POP PUSH1 0x40 MLOAD RETURNDATASIZE PUSH1 0x1F NOT PUSH1 0x1F DUP3 ADD AND DUP3 ADD DUP1 PUSH1 0x40 MSTORE POP DUP2 ADD SWAP1 PUSH2 0x52D SWAP2 SWAP1 PUSH2 0xB59 JUMP JUMPDEST POP POP POP SWAP2 POP POP DUP1 SWAP3 POP POP POP SWAP1 JUMP JUMPDEST CALLVALUE PUSH1 0x1 PUSH0 CALLER PUSH20 0xFFFFFFFFFFFFFFFFFFFFFFFFFFFFFFFFFFFFFFFF AND PUSH20 0xFFFFFFFFFFFFFFFFFFFFFFFFFFFFFFFFFFFFFFFF AND DUP2 MSTORE PUSH1 0x20 ADD SWAP1 DUP2 MSTORE PUSH1 0x20 ADD PUSH0 KECCAK256 PUSH0 DUP3 DUP3 SLOAD PUSH2 0x587 SWAP2 SWAP1 PUSH2 0xBD0 JUMP JUMPDEST SWAP3 POP POP DUP2 SWAP1 SSTORE POP PUSH1 0x2 CALLER SWAP1 DUP1 PUSH1 0x1 DUP2 SLOAD ADD DUP1 DUP3 SSTORE DUP1 SWAP2 POP POP PUSH1 0x1 SWAP1 SUB SWAP1 PUSH0 MSTORE PUSH1 0x20 PUSH0 KECCAK256 ADD PUSH0 SWAP1 SWAP2 SWAP1 SWAP2 SWAP1 SWAP2 PUSH2 0x100 EXP DUP2 SLOAD DUP2 PUSH20 0xFFFFFFFFFFFFFFFFFFFFFFFFFFFFFFFFFFFFFFFF MUL NOT AND SWAP1 DUP4 PUSH20 0xFFFFFFFFFFFFFFFFFFFFFFFFFFFFFFFFFFFFFFFF AND MUL OR SWAP1 SSTORE POP JUMP JUMPDEST PUSH1 0x2 DUP2 DUP2 SLOAD DUP2 LT PUSH2 0x5FF JUMPI PUSH0 DUP1 REVERT JUMPDEST SWAP1 PUSH0 MSTORE PUSH1 0x20 PUSH0 KECCAK256 ADD PUSH0 SWAP2 POP SLOAD SWAP1 PUSH2 0x100 EXP SWAP1 DIV PUSH20 0xFFFFFFFFFFFFFFFFFFFFFFFFFFFFFFFFFFFFFFFF AND DUP2 JUMP JUMPDEST PUSH2 0x633 PUSH2 0x4A6 JUMP JUMPDEST PUSH2 0x63C CALLVALUE PUSH2 0x44B JUMP JUMPDEST LT ISZERO PUSH2 0x67D JUMPI PUSH1 0x40 MLOAD PUSH32 0x8C379A000000000000000000000000000000000000000000000000000000000 DUP2 MSTORE PUSH1 0x4 ADD PUSH2 0x674 SWAP1 PUSH2 0xC4D JUMP JUMPDEST PUSH1 0x40 MLOAD DUP1 SWAP2 SUB SWAP1 REVERT JUMPDEST CALLVALUE PUSH1 0x1 PUSH0 CALLER PUSH20 0xFFFFFFFFFFFFFFFFFFFFFFFFFFFFFFFFFFFFFFFF AND PUSH20 0xFFFFFFFFFFFFFFFFFFFFFFFFFFFFFFFFFFFFFFFF AND DUP2 MSTORE PUSH1 0x20 ADD SWAP1 DUP2 MSTORE PUSH1 0x20 ADD PUSH0 KECCAK256 PUSH0 DUP3 DUP3 SLOAD PUSH2 0x6C9 SWAP2 SWAP1 PUSH2 0xBD0 JUMP JUMPDEST SWAP3 POP POP DUP2 SWAP1 SSTORE POP PUSH1 0x2 CALLER SWAP1 DUP1 PUSH1 0x1 DUP2 SLOAD ADD DUP1 DUP3 SSTORE DUP1 SWAP2 POP POP PUSH1 0x1 SWAP1 SUB SWAP1 PUSH0 MSTORE PUSH1 0x20 PUSH0 KECCAK256 ADD PUSH0 SWAP1 SWAP2 SWAP1 SWAP2 SWAP1 SWAP2 PUSH2 0x100 EXP DUP2 SLOAD DUP2 PUSH20 0xFFFFFFFFFFFFFFFFFFFFFFFFFFFFFFFFFFFFFFFF MUL NOT AND SWAP1 DUP4 PUSH20 0xFFFFFFFFFFFFFFFFFFFFFFFFFFFFFFFFFFFFFFFF AND MUL OR SWAP1 SSTORE POP JUMP JUMPDEST DUP3 DUP1 SLOAD DUP3 DUP3 SSTORE SWAP1 PUSH0 MSTORE PUSH1 0x20 PUSH0 KECCAK256 SWAP1 DUP2 ADD SWAP3 DUP3 ISZERO PUSH2 0x7A8 JUMPI SWAP2 PUSH1 0x20 MUL DUP3 ADD JUMPDEST DUP3 DUP2 GT ISZERO PUSH2 0x7A7 JUMPI DUP3 MLOAD DUP3 PUSH0 PUSH2 0x100 EXP DUP2 SLOAD DUP2 PUSH20 0xFFFFFFFFFFFFFFFFFFFFFFFFFFFFFFFFFFFFFFFF MUL NOT AND SWAP1 DUP4 PUSH20 0xFFFFFFFFFFFFFFFFFFFFFFFFFFFFFFFFFFFFFFFF AND MUL OR SWAP1 SSTORE POP SWAP2 PUSH1 0x20 ADD SWAP2 SWAP1 PUSH1 0x1 ADD SWAP1 PUSH2 0x750 JUMP JUMPDEST JUMPDEST POP SWAP1 POP PUSH2 0x7B5 SWAP2 SWAP1 PUSH2 0x7B9 JUMP JUMPDEST POP SWAP1 JUMP JUMPDEST JUMPDEST DUP1 DUP3 GT ISZERO PUSH2 0x7D0 JUMPI PUSH0 DUP2 PUSH0 SWAP1 SSTORE POP PUSH1 0x1 ADD PUSH2 0x7BA JUMP JUMPDEST POP SWAP1 JUMP JUMPDEST PUSH0 DUP2 SWAP1 POP SWAP2 SWAP1 POP JUMP JUMPDEST PUSH2 0x7E6 DUP2 PUSH2 0x7D4 JUMP JUMPDEST DUP3 MSTORE POP POP JUMP JUMPDEST PUSH0 PUSH1 0x20 DUP3 ADD SWAP1 POP PUSH2 0x7FF PUSH0 DUP4 ADD DUP5 PUSH2 0x7DD JUMP JUMPDEST SWAP3 SWAP2 POP POP JUMP JUMPDEST PUSH0 DUP1 REVERT JUMPDEST PUSH0 PUSH20 0xFFFFFFFFFFFFFFFFFFFFFFFFFFFFFFFFFFFFFFFF DUP3 AND SWAP1 POP SWAP2 SWAP1 POP JUMP JUMPDEST PUSH0 PUSH2 0x832 DUP3 PUSH2 0x809 JUMP JUMPDEST SWAP1 POP SWAP2 SWAP1 POP JUMP JUMPDEST PUSH2 0x842 DUP2 PUSH2 0x828 JUMP JUMPDEST DUP2 EQ PUSH2 0x84C JUMPI PUSH0 DUP1 REVERT JUMPDEST POP JUMP JUMPDEST PUSH0 DUP2 CALLDATALOAD SWAP1 POP PUSH2 0x85D DUP2 PUSH2 0x839 JUMP JUMPDEST SWAP3 SWAP2 POP POP JUMP JUMPDEST PUSH0 PUSH1 0x20 DUP3 DUP5 SUB SLT ISZERO PUSH2 0x878 JUMPI PUSH2 0x877 PUSH2 0x805 JUMP JUMPDEST JUMPDEST PUSH0 PUSH2 0x885 DUP5 DUP3 DUP6 ADD PUSH2 0x84F JUMP JUMPDEST SWAP2 POP POP SWAP3 SWAP2 POP POP JUMP JUMPDEST PUSH2 0x897 DUP2 PUSH2 0x7D4 JUMP JUMPDEST DUP2 EQ PUSH2 0x8A1 JUMPI PUSH0 DUP1 REVERT JUMPDEST POP JUMP JUMPDEST PUSH0 DUP2 CALLDATALOAD SWAP1 POP PUSH2 0x8B2 DUP2 PUSH2 0x88E JUMP JUMPDEST SWAP3 SWAP2 POP POP JUMP JUMPDEST PUSH0 PUSH1 0x20 DUP3 DUP5 SUB SLT ISZERO PUSH2 0x8CD JUMPI PUSH2 0x8CC PUSH2 0x805 JUMP JUMPDEST JUMPDEST PUSH0 PUSH2 0x8DA DUP5 DUP3 DUP6 ADD PUSH2 0x8A4 JUMP JUMPDEST SWAP2 POP POP SWAP3 SWAP2 POP POP JUMP JUMPDEST PUSH2 0x8EC DUP2 PUSH2 0x828 JUMP JUMPDEST DUP3 MSTORE POP POP JUMP JUMPDEST PUSH0 PUSH1 0x20 DUP3 ADD SWAP1 POP PUSH2 0x905 PUSH0 DUP4 ADD DUP5 PUSH2 0x8E3 JUMP JUMPDEST SWAP3 SWAP2 POP POP JUMP JUMPDEST PUSH0 DUP2 MLOAD SWAP1 POP PUSH2 0x919 DUP2 PUSH2 0x88E JUMP JUMPDEST SWAP3 SWAP2 POP POP JUMP JUMPDEST PUSH0 PUSH1 0x20 DUP3 DUP5 SUB SLT ISZERO PUSH2 0x934 JUMPI PUSH2 0x933 PUSH2 0x805 JUMP JUMPDEST JUMPDEST PUSH0 PUSH2 0x941 DUP5 DUP3 DUP6 ADD PUSH2 0x90B JUMP JUMPDEST SWAP2 POP POP SWAP3 SWAP2 POP POP JUMP JUMPDEST PUSH0 DUP3 DUP3 MSTORE PUSH1 0x20 DUP3 ADD SWAP1 POP SWAP3 SWAP2 POP POP JUMP JUMPDEST PUSH32 0x796F7520617265206E6F7420746865206F776E65720000000000000000000000 PUSH0 DUP3 ADD MSTORE POP JUMP JUMPDEST PUSH0 PUSH2 0x98E PUSH1 0x15 DUP4 PUSH2 0x94A JUMP JUMPDEST SWAP2 POP PUSH2 0x999 DUP3 PUSH2 0x95A JUMP JUMPDEST PUSH1 0x20 DUP3 ADD SWAP1 POP SWAP2 SWAP1 POP JUMP JUMPDEST PUSH0 PUSH1 0x20 DUP3 ADD SWAP1 POP DUP2 DUP2 SUB PUSH0 DUP4 ADD MSTORE PUSH2 0x9BB DUP2 PUSH2 0x982 JUMP JUMPDEST SWAP1 POP SWAP2 SWAP1 POP JUMP JUMPDEST PUSH32 0x4E487B7100000000000000000000000000000000000000000000000000000000 PUSH0 MSTORE PUSH1 0x32 PUSH1 0x4 MSTORE PUSH1 0x24 PUSH0 REVERT JUMPDEST PUSH32 0x4E487B7100000000000000000000000000000000000000000000000000000000 PUSH0 MSTORE PUSH1 0x41 PUSH1 0x4 MSTORE PUSH1 0x24 PUSH0 REVERT JUMPDEST PUSH32 0x4E487B7100000000000000000000000000000000000000000000000000000000 PUSH0 MSTORE PUSH1 0x11 PUSH1 0x4 MSTORE PUSH1 0x24 PUSH0 REVERT JUMPDEST PUSH0 PUSH2 0xA53 DUP3 PUSH2 0x7D4 JUMP JUMPDEST SWAP2 POP PUSH2 0xA5E DUP4 PUSH2 0x7D4 JUMP JUMPDEST SWAP3 POP DUP3 DUP3 MUL PUSH2 0xA6C DUP2 PUSH2 0x7D4 JUMP JUMPDEST SWAP2 POP DUP3 DUP3 DIV DUP5 EQ DUP4 ISZERO OR PUSH2 0xA83 JUMPI PUSH2 0xA82 PUSH2 0xA1C JUMP JUMPDEST JUMPDEST POP SWAP3 SWAP2 POP POP JUMP JUMPDEST PUSH32 0x4E487B7100000000000000000000000000000000000000000000000000000000 PUSH0 MSTORE PUSH1 0x12 PUSH1 0x4 MSTORE PUSH1 0x24 PUSH0 REVERT JUMPDEST PUSH0 PUSH2 0xAC1 DUP3 PUSH2 0x7D4 JUMP JUMPDEST SWAP2 POP PUSH2 0xACC DUP4 PUSH2 0x7D4 JUMP JUMPDEST SWAP3 POP DUP3 PUSH2 0xADC JUMPI PUSH2 0xADB PUSH2 0xA8A JUMP JUMPDEST JUMPDEST DUP3 DUP3 DIV SWAP1 POP SWAP3 SWAP2 POP POP JUMP JUMPDEST PUSH0 PUSH10 0xFFFFFFFFFFFFFFFFFFFF DUP3 AND SWAP1 POP SWAP2 SWAP1 POP JUMP JUMPDEST PUSH2 0xB05 DUP2 PUSH2 0xAE7 JUMP JUMPDEST DUP2 EQ PUSH2 0xB0F JUMPI PUSH0 DUP1 REVERT JUMPDEST POP JUMP JUMPDEST PUSH0 DUP2 MLOAD SWAP1 POP PUSH2 0xB20 DUP2 PUSH2 0xAFC JUMP JUMPDEST SWAP3 SWAP2 POP POP JUMP JUMPDEST PUSH0 DUP2 SWAP1 POP SWAP2 SWAP1 POP JUMP JUMPDEST PUSH2 0xB38 DUP2 PUSH2 0xB26 JUMP JUMPDEST DUP2 EQ PUSH2 0xB42 JUMPI PUSH0 DUP1 REVERT JUMPDEST POP JUMP JUMPDEST PUSH0 DUP2 MLOAD SWAP1 POP PUSH2 0xB53 DUP2 PUSH2 0xB2F JUMP JUMPDEST SWAP3 SWAP2 POP POP JUMP JUMPDEST PUSH0 DUP1 PUSH0 DUP1 PUSH0 PUSH1 0xA0 DUP7 DUP9 SUB SLT ISZERO PUSH2 0xB72 JUMPI PUSH2 0xB71 PUSH2 0x805 JUMP JUMPDEST JUMPDEST PUSH0 PUSH2 0xB7F DUP9 DUP3 DUP10 ADD PUSH2 0xB12 JUMP JUMPDEST SWAP6 POP POP PUSH1 0x20 PUSH2 0xB90 DUP9 DUP3 DUP10 ADD PUSH2 0xB45 JUMP JUMPDEST SWAP5 POP POP PUSH1 0x40 PUSH2 0xBA1 DUP9 DUP3 DUP10 ADD PUSH2 0x90B JUMP JUMPDEST SWAP4 POP POP PUSH1 0x60 PUSH2 0xBB2 DUP9 DUP3 DUP10 ADD PUSH2 0x90B JUMP JUMPDEST SWAP3 POP POP PUSH1 0x80 PUSH2 0xBC3 DUP9 DUP3 DUP10 ADD PUSH2 0xB12 JUMP JUMPDEST SWAP2 POP POP SWAP3 SWAP6 POP SWAP3 SWAP6 SWAP1 SWAP4 POP JUMP JUMPDEST PUSH0 PUSH2 0xBDA DUP3 PUSH2 0x7D4 JUMP JUMPDEST SWAP2 POP PUSH2 0xBE5 DUP4 PUSH2 0x7D4 JUMP JUMPDEST SWAP3 POP DUP3 DUP3 ADD SWAP1 POP DUP1 DUP3 GT ISZERO PUSH2 0xBFD JUMPI PUSH2 0xBFC PUSH2 0xA1C JUMP JUMPDEST JUMPDEST SWAP3 SWAP2 POP POP JUMP JUMPDEST PUSH32 0x726576657274206572726F720000000000000000000000000000000000000000 PUSH0 DUP3 ADD MSTORE POP JUMP JUMPDEST PUSH0 PUSH2 0xC37 PUSH1 0xC DUP4 PUSH2 0x94A JUMP JUMPDEST SWAP2 POP PUSH2 0xC42 DUP3 PUSH2 0xC03 JUMP JUMPDEST PUSH1 0x20 DUP3 ADD SWAP1 POP SWAP2 SWAP1 POP JUMP JUMPDEST PUSH0 PUSH1 0x20 DUP3 ADD SWAP1 POP DUP2 DUP2 SUB PUSH0 DUP4 ADD MSTORE PUSH2 0xC64 DUP2 PUSH2 0xC2B JUMP JUMPDEST SWAP1 POP SWAP2 SWAP1 POP JUMP INVALID LOG2 PUSH5 0x6970667358 0x22 SLT KECCAK256 0xEB TLOAD DUP7 0xC3 0xE1 PC 0x2B 0xD4 0xC6 EQ DUP13 0xC3 DUP1 DUP15 0xE2 0x27 DUP10 CALLDATASIZE MULMOD SWAP7 LT MCOPY 0xB5 CALLVALUE 0xE9 0xC6 0xE7 OR PUSH22 0xA0A21564736F6C634300081A00330000000000000000 "
				},
				"gasEstimates": {
					"creation": {
						"codeDepositCost": "646600",
						"executionCost": "24946",
						"totalCost": "671546"
					},
					"external": {
						"addressToAmountFunded(address)": "2847",
						"fund()": "infinite",
						"fundV2()": "infinite",
						"funders(uint256)": "5010",
						"getConversionRate(uint256)": "infinite",
						"getPrice()": "infinite",
						"getVersion()": "infinite",
						"owner()": "2505",
						"withdraw()": "infinite"
					}
				},
				"methodIdentifiers": {
					"addressToAmountFunded(address)": "3e47d6f3",
					"fund()": "b60d4288",
					"fundV2()": "f5b27d2b",
					"funders(uint256)": "dc0d3dff",
					"getConversionRate(uint256)": "6e5b6b28",
					"getPrice()": "98d5fdca",
					"getVersion()": "0d8e6e2c",
					"owner()": "8da5cb5b",
					"withdraw()": "3ccfd60b"
				}
			},
			"storageLayout": {
				"storage": [
					{
						"astId": 51,
						"contract": "contracts/FundMe.sol:FundMe",
						"label": "owner",
						"offset": 0,
						"slot": "0",
						"type": "t_address"
					},
					{
						"astId": 67,
						"contract": "contracts/FundMe.sol:FundMe",
						"label": "addressToAmountFunded",
						"offset": 0,
						"slot": "1",
						"type": "t_mapping(t_address,t_uint256)"
					},
					{
						"astId": 70,
						"contract": "contracts/FundMe.sol:FundMe",
						"label": "funders",
						"offset": 0,
						"slot": "2",
						"type": "t_array(t_address)dyn_storage"
					}
				],
				"types": {
					"t_address": {
						"encoding": "inplace",
						"label": "address",
						"numberOfBytes": "20"
					},
					"t_array(t_address)dyn_storage": {
						"base": "t_address",
						"encoding": "dynamic_array",
						"label": "address[]",
						"numberOfBytes": "32"
					},
					"t_mapping(t_address,t_uint256)": {
						"encoding": "mapping",
						"key": "t_address",
						"label": "mapping(address => uint256)",
						"numberOfBytes": "32",
						"value": "t_uint256"
					},
					"t_uint256": {
						"encoding": "inplace",
						"label": "uint256",
						"numberOfBytes": "32"
					}
				}
			},
			"userdoc": {
				"kind": "user",
				"methods": {},
				"version": 1
			}
		}
	}
}